:020000040800F2
:10000000E8060020890100088714000895130008FD
:1000100085140008F3020008C5160008000000005F
:100020000000000000000000000000008B14000829
:10003000F502000800000000891400088D14000873
:10004000A3010008A3010008A3010008A301000800
:10005000A3010008A3010008A3010008A3010008F0
:10006000F7020008A3010008A3010008A30100088B
:10007000A3010008A3010008A3010008A3010008D0
:10008000A3010008A301000891020008A3010008D1
:10009000A3010008A3010008A3010008A3010008B0
:1000A000A3010008A3010008A3010008A3010008A0
:1000B000A3010008A3010008A3010008A301000890
:1000C000A3010008A3010008A3010008A301000880
:1000D000A3010008B9160008A3010008A301000845
:1000E000A3010008A3010008A301000800F002F822
:1000F00000F03AF80AA090E8000C82448344AAF188
:100100000107DA4501D100F02FF8AFF2090EBAE885
:100110000F0013F0010F18BFFB1A43F0010318473B
:100120002016000040160000103A24BF78C878C19D
:10013000FAD8520724BF30C830C144BF04680C60ED
:10014000704700000023002400250026103A28BF35
:1001500078C1FBD8520728BF30C148BF0B60704739
:100160001FB51FBD10B510BD00F058F81146FFF7C0
:10017000F7FF01F0B9FA00F076F803B4FFF7F2FFE9
:1001800003BC00F07DF8000009488047094800479B
:10019000FEE7FEE7FEE7FEE7FEE7FEE7FEE7FEE737
:1001A000FEE7FEE704480549054A064B7047000094
:1001B00007150008ED000008E8000020E806002010
:1001C000E8020020E80200204FF0000200B51346CC
:1001D00094469646203922BFA0E80C50A0E80C5067
:1001E000B1F12001BFF4F7AF090728BFA0E80C5018
:1001F00048BF0CC05DF804EB890028BF40F8042B11
:1002000008BF704748BF20F8022B11F0804F18BF7D
:1002100000F8012B7047704770477047754600F033
:100220002BF8AE4605006946534620F00700854688
:1002300018B020B5FFF7B6FFBDE820404FF000062C
:100240004FF000074FF000084FF0000B21F00701BE
:10025000AC46ACE8C009ACE8C009ACE8C009ACE801
:10026000C0098D46704710B50446AFF300802046A4
:10027000BDE81040FFF781BF0048704784000020B0
:1002800001491820ABBEFEE72600020070470000BF
:10029000014800F0B4B800001000002070B504461A
:1002A00000688168C943C90717D1816821F001013D
:1002B000816000F04FFB05460AE000BF00F04AFBFA
:1002C000401B022804D920688068C043C00706D0BC
:1002D00020688068C043C007F0D0002070BDA06ACD
:1002E00040F01000A062E06A40F00100E0620120EE
:1002F00070BDFEE77047042000F02ABA7047000086
:10030000F8B50024009490F824202546012A12D044
:10031000012280F824204A681F23072A0DD206688C
:10032000776B521E02EB820293409F430B6893400F
:100330001F43776319E00220F8BD06680D2A0AD230
:10034000376BD21F02EB820293409F430B689340AE
:100350001F43376309E0F76A0D3A02EB82029340CC
:100360009F430B6893401F43F7620A6807230668A0
:100370000A2A0AD3F7680A3A02EB420293409F43E3
:100380008B6893401F43F76008E0376902EB420235
:1003900093409F438B6893401F4337610A68102A3C
:1003A00001D0112A20D1124B02689A4217D19368CA
:1003B0001B0219D4936843F4000393600968102961
:1003C00012D10C490C4A0968B1FBF2F101EB810131
:1003D000490000E0491E00910029FBD104E0816A38
:1003E00041F020018162012480F824502046F8BDAC
:1003F000002401400C00002040420F00704710B55F
:10040000044600684168890626D50168890723D516
:10041000A16AC90603D4A16A41F40071A16281688E
:10042000C1F34241072910D1217B71B9416821F004
:1004300020014160A06A20F48070A062A06AC0041C
:1004400003D4A06A40F00100A0622046FFF7D6FF67
:1004500021686FF0120008602068416809062ED5F7
:10046000016849072BD5A16AC90603D4A16A41F4E2
:100470000051A1628168C1F30231072909D04168A6
:10048000490515D48168C1F34241072910D1217B68
:1004900071B9416821F080014160A06A20F4805068
:1004A000A062A06AC00503D4A06A40F00100A06267
:1004B0002046FFF723FF21686FF00C0008602068DA
:1004C000416849060DD50068C0070AD0A06A40F40B
:1004D0008030A062204600F093F821686FF00100A0
:1004E000086010BD2DE9F0414FF0000704003D46C3
:1004F0007ED0A06A002628B9E66284F824602046EF
:1005000000F080F82046FFF7C9FEA16AC90600D4B2
:1005100020B1A06A40F01000A06269E0A16A21F455
:10052000885141F00201A1626268E169237B0A43BC
:1005300047EA43010A43A1684FF48077B94209D0E2
:10054000012907D05FF0000194F814C0BCF1010F3D
:1005500002D00AE03946F7E7F3B1A36A43F020037B
:10056000A362E36A43F00103E3622368D3F804C0A3
:100570002CF4694C4CEA010CC3F804C021688B6868
:10058000DFF870C003EA0C0313438B60A168B94223
:100590000BD0012909D00CE0DFF85CC0A3690CEB9B
:1005A00043330B4343F40061DFE7218A0D05A5F5D2
:1005B00080152168CB6A23F470032B43CB6221683A
:1005C00089680E4B1940914208D1E662A16A21F078
:1005D000020141F00101A162BDE8F081A06A20F0B2
:1005E000020040F01000A062E06A40F00100E0620A
:1005F0000120F1E7FDF7E1FF00E0FFFFFE0E1FFF26
:100600007047000000B585B0002100910191029172
:10061000039100681249884220D11248816941F44F
:1006200000718161816901F400710491816941F077
:10063000040181618069694600F004000490022091
:10064000009003200190084800F08EF80022114627
:10065000122000F0EBF9122000F0DAF905B000BD2D
:1006600000240140001002400008014010B590F83D
:1006700021100022022905D00421816380F8202066
:10068000012010BD01680B6823F00E030B600168A8
:100690000B6823F001030B6090F84030C46B01211C
:1006A00001FA03F3636080F8211080F820201046DF
:1006B00010BD000010B590F821100024022903D0CD
:1006C0000421816301243DE001680A6822F00E02E2
:1006D0000A6001680A6822F001020A601A4A016889
:1006E000914201D1012121E0174A1432914201D1F6
:1006F00010211BE0144A2832914201D1891515E0DE
:10070000114A3C32914201D189140FE00E4A503215
:10071000914202D14FF4803108E00B4A6432914299
:1007200002D14FF4801101E04FF08071064A083A7F
:100730005160012180F82110002180F82010416BC8
:1007400001B18847204610BD0800024070470000F4
:10075000044910B50A68024202D00860FFF7F6FFAC
:1007600010BD0000140401402DE9F84FDFF8B891E6
:10077000002409F1040A0AF1040B23460F270BF1A8
:10078000040EC9E00125A5402A40AA427DD1674E4A
:10079000D1F804C0ACEB0608B44532D014DCBCF18F
:1007A000030F3AD009DCBCF1000F2AD0BCF1010FD5
:1007B0001CD0BCF1020F31D11DE0BCF1110F17D0DC
:1007C000BCF1120F2AD119E0B8F5881F19D006DC48
:1007D000B8F5803F15D0B8F5801F1FD111E0B8F5EE
:1007E000001F0ED0B8F5041F18D10AE0CB6815E041
:1007F000CB681B1D12E0CB6808330FE0CB680C33CD
:100800000CE08B682BB1012B4FF0080303D045613E
:1008100004E0042302E0056100E00023FF2A01D880
:10082000064601E000F104064FEA840501D9A5F16E
:100830002005D6F8008007FA05FC28EA0C0803FA20
:1008400005F548EA0508C6F800804D68ED0062D558
:10085000374DAE6946F00106AE61AD6924F003067E
:1008600005F001050095334D06EB050CDCF808504A
:10087000A607360F07FA06F825EA0805DFF8B8805C
:10088000404503D14FF0000817E044E0DFF8AC80AA
:10089000404502D14FF001080FE0DFF8A480404549
:1008A00002D14FF0020808E0DFF89880404502D1FD
:1008B0004FF0030801E04FF0040808FA06F848EA90
:1008C0000508CCF808804D68D9F80060ED034D4666
:1008D00001D5164300E096432E604D68DAF80060BB
:1008E000AD03554601D5164300E096432E604D6892
:1008F000DBF80060ED025D4601D5164300E096434B
:100900002E604D68DEF80060AD02754601D51643D5
:1009100000E096432E60641C0D682A46E5407FF493
:1009200031AFBDE8F88F0000000401400000111055
:10093000001002400000014000080140000C01408E
:1009400000100140001401400AB101617047090420
:10095000FBE70000014880687047000000000020AD
:1009600002488168027811448160704700000020CD
:10097000074810B5016841F010010160032000F044
:1009800075F80F2000F006F800F024F8002010BDE4
:100990000020024070B50D4D04464FF47A7128785E
:1009A000B1FBF0F00A490968B1FBF0F000F062FB1E
:1009B00048B9102C07D200222146501E00F036F80C
:1009C00000206C6070BD012070BD000000000020A0
:1009D0000C0000200C4808B5816941F001018161DB
:1009E000816901F001010091C16941F08051C1614B
:1009F000C06900F0805000900448416821F0E06137
:100A000041F00071416008BD00100240000001404B
:100A1000002809DB00F01F020121914040098000FD
:100A200000F1E020C0F8001170470000F0B40E4B58
:100A30001B680C46C3F30223C3F10705042D00D93C
:100A40000425191D072901D2002300E0DB1E012621
:100A500006FA05F1491E214099409E40761E164037
:100A60003143F0BC00F02FBE0CED00E0064900F071
:100A7000070208684FF6FF03184040EA0220034AC5
:100A800010430860704700000CED00E00000FA051C
:100A90002DE9F84305460078354CC00754D0E0698D
:100AA0000026C00008D4E06940F08050E061E069B1
:100AB000012600F0805000902E480168C90512D42C
:100AC0000168804641F480710160FFF743FF0746EB
:100AD00005E000BFFFF73EFFC01B642823D8D8F80D
:100AE0000000C005F6D5206A10F4407021D0A98816
:100AF00001F4407181421CD0206A1F49012220F478
:100B000040700A6000220A602062C00711D0FFF71F
:100B100021FF074641F2883808E000BFFFF71AFFBF
:100B2000C11B414502D90320BDE8F883206A800734
:100B3000F4D5206A696820F44070084320621EB131
:100B4000E06920F08050E0612878800705D5606872
:100B5000A96820F44040084360602878C00605D5A5
:100B60006068E96820F48000084360600020DBE7EB
:100B70000010024000700040400442422DE9F0475E
:100B80000F46050061D0434E306800F00700B842C0
:100B900009D2306820F0070038433060306800F038
:100BA0000700B84251D128683B4C810712D5400755
:100BB00003D5606840F4E06060602878000703D5E2
:100BC000606840F4605060606068A96820F0F000E0
:100BD000084360602878C00728D06868012810D0D2
:100BE0002168022810D0890700292EDA616821F0D7
:100BF000030101436160FFF7ADFE804641F2883991
:100C00000DE021688903EFE78901EDE7FFF7A2FE18
:100C1000A0EB0801494502D90320BDE8F0876068D0
:100C2000696800F00C00B0EB810FEFD1306800F084
:100C30000700B8420BD9306820F007003843306015
:100C4000306800F00700B84201D00120E5E72878BD
:100C5000400705D56068E96820F4E06008436060FB
:100C60002878000706D56068296920F4605040EABA
:100C7000C100606000F038F86168084AC1F30311F0
:100C8000515CC8400649086006480068FFF782FECC
:100C90000020C2E700200240001002402817000890
:100CA0000C00002004000020044805490068496841
:100CB000044AC1F30221515CC84070470C00002077
:100CC00000100240381700080448054900684968C8
:100CD000044AC1F3C221515CC84070470C00002097
:100CE000001002403817000812A185B00FC98DE826
:100CF0000F0014A0144A006804905168134801F0D2
:100D00000C03042B10D0082B0ED1C1F38343C9036D
:100D10001DF803000AD5516804AAC1F34041515C93
:100D20000A4A5043B0FBF1F005B070470849484308
:100D3000FAE7000002030405060708090A0B0C0D78
:100D40000E0F1010010200000010024000127A0085
:100D500000093D002DE9F84F040070D02078C04D07
:100D6000C00749D06868C0F38100012807D06868CF
:100D7000C0F38100022809D16868C00306D528683D
:100D8000800339D560680028E7D035E06068B0F5A9
:100D9000803F0BD010B1B0F5A02F11D0286820F4FF
:100DA00080302860286820F4802002E0286840F421
:100DB00080302860606890B1FFF7CCFD06460AE0FD
:100DC000286840F480202860F0E700BFFFF7C2FDEC
:100DD000801B642873D828688003F7D50CE0FFF7E0
:100DE000B9FD064605E000BFFFF7B4FD801B64288F
:100DF000F0D828688003F7D420789A4E80074FF007
:100E000001094FF0000839D5686810F00C0F07D0C1
:100E10006868C0F38100022809D16868C00306D45D
:100E20002868800714D52069012808D110E02069BE
:100E3000B0B1C6F80090FFF78DFD074605E00AE166
:100E4000FFF788FDC01B0228C4D828688007F7D5A3
:100E50002868616920F0F80040EAC10028600DE0D0
:100E6000C6F80080FFF776FD074604E0FFF772FD45
:100E7000C01B022823D828688007F7D420780007F1
:100E80002CD57948A169D9B1C0F80090FFF762FD6F
:100E9000074604E0FFF75EFDC01B02280FD8686A12
:100EA0008007F7D571484FF4FA510068B0FBF1F0B4
:100EB000009000BF0098411E0091FAD20EE080E041
:100EC000C0F80080FFF746FD074604E0FFF742FD4B
:100ED000C01B022875D8686A8007F7D420784007BD
:100EE00060D5E8690027C00008D4E86940F0805068
:100EF000E861E869012700F0805000905C480168D3
:100F0000C90513D40168834641F480710160FFF77D
:100F100021FD824606E000BFFFF71CFDA0EB0A00A2
:100F200064284ED8DBF80000C005F5D5E06801283C
:100F30000AD008B1052813D0286A20F001002862E1
:100F4000286A20F0040002E0286A40F001002862CC
:100F5000E06841F2883B98B1FFF7FCFC82460BE069
:100F6000286A40F004002862EEE700BFFFF7F2FCB9
:100F7000A0EB0A0159455AD8286A8007F6D50CE03B
:100F8000FFF7E8FC824605E0FFF7E4FCA0EB0A016E
:100F900059454CD8286A8007F6D41FB1E86920F07B
:100FA0008050E861E06988B36968C1F38101022972
:100FB00044D00228C6F8608004D0FFF7CBFC04467A
:100FC00038E034E0FFF7C6FC074604E0FFF7C2FC58
:100FD000C01B02282BD828688001F7D4206AB0F5FE
:100FE000803F05D16868A16820F40030084368603C
:100FF000D4E908010843696821F474110843686062
:10100000C6F86090FFF7A6FC044606E025E000BFA6
:10101000FFF7A0FC001B022809D828688001F7D53B
:101020001BE000BFFFF796FC001B022802D903203B
:10103000BDE8F88F28688001F4D40EE00128F7D0CD
:101040006868226A00F48031914204D1616A00F438
:101050007010884201D00120EAE70020E8E7000094
:101060000010024000004242800442420C00002076
:101070000070004010B5401EB0F1807F01D3012008
:1010800010BD4FF0E02460610F21601700F01BFBE2
:101090000020A06107202061002010BD704770472C
:1010A000F8B5026804461068D168536910F00F0F54
:1010B0004FF0000553D003F0010601F49077374359
:1010C0005FD0C20705D0CA0503D5226C42F00102E9
:1010D0002264420705D5DA0703D0226C42F00202EF
:1010E0002264820705D5DA0703D0226C42F004029D
:1010F0002264020707D501F02002324303D0226C9C
:1011000042F008022264226C002A34D0800604D502
:10111000880602D5204600F017FA20684069216C45
:10112000C0F38010090700D430B3204600F0F4F972
:101130002068416949061BD5416921F040014161A0
:10114000A06BA8B158494163A06BFFF7B3FA002820
:1011500011D0A06B416B01B0BDE8F0400847830699
:101160000FD58B060DD52046BDE8F84000F0ECB950
:101170002046FFF794FFF8BD2046FFF790FF256457
:10118000F8BD266B2023012E52D1C60650D5CE06BF
:101190004ED5106850680090506940062AD5A16B62
:1011A000086840680004000CEAD0A68D8642E7D9A2
:1011B000E0858869202818D0D06820F48070D0603D
:1011C0002068416921F0010141612068416921F0F5
:1011D0004001416184F83E3025632068C16821F0F8
:1011E0001001C160A06BFFF741FAA08DE18D401A9C
:1011F00081B219E0A08DE18D401A81B2E08D002806
:10120000BED00029BCD0D06820F49070D060206897
:10121000426922F00102426184F83E302563206871
:10122000C26822F01002C2602046FFF737FFF8BD07
:1012300005062BD50D0629D594F83D002128F6D1B9
:10124000A068B0F5805F01D12069B0B1206A411C6F
:101250002162216800784860E08C401E0004000C88
:10126000E084E4D12068C16821F08001C160206879
:10127000C16841F04001C160F8BD206A0088C0F338
:1012800008005060206A801C2062E5E74006F3D524
:101290004806F1D5D168204621F04001D16084F89C
:1012A0003D3000F076F8F8BD0915000870B504006F
:1012B00004D094F83D00002510B106E0012070BD77
:1012C00084F83C50204600F023F8242084F83D00A8
:1012D0002068C16821F40051C160204600F090F9F7
:1012E0002068016921F4904101612068416921F081
:1012F0002A0141612068C16841F40051C160256440
:10130000202084F83D0084F83E00002070BD0000DD
:1013100030B585B0002400940194029403940068D1
:10132000184988422CD11848816941F48041816173
:10133000816901F480410491816941F00401816176
:101340008069124D00F0040004904FF4007000908A
:10135000022001900320039069462846FFF704FA13
:101360002815CDE90004694628460294FFF7FCF9E8
:10137000002211462520FFF759FB2520FFF748FBE7
:1013800005B030BD003801400010024000080140A7
:1013900070477047FEE700003EB5002111480091FC
:1013A00001910F4A0291026081600173017501246D
:1013B0004FF460220461C2614160FFF793F808B105
:1013C00072B6FEE702200094CDE901406946054867
:1013D000FEF796FF002801D072B6FEE73EBD000082
:1013E000002401401000002070B586B00024214880
:1013F0000094019402940394816941F01001816189
:10140000816901F010010491816941F0200181613D
:10141000816901F020010491816941F00401816139
:101420008069154E00F004004FF40055049000222E
:1014300029463046FFF788FA0220CDE902400095A0
:101440000125694601953046FFF78EF9042000908A
:101450000A48CDE9010569460948FFF785F90022E8
:1014600011460820FFF7E2FA0820FFF7D1FA06B08C
:1014700070BD00000010024000100140000021106B
:1014800000080140FEE7FEE770477047FFF768BAC3
:1014900030B593B028216846FEF796FE14210AA8BD
:1014A000FEF792FE002401210F9410940804CDE968
:1014B000001011941294029402250491CDE9075072
:1014C0004FF4E01009906846FFF744FC08B172B68B
:1014D000FEE70F20CDE90A054FF48060CDE90C400E
:1014E00002210AA80E94FFF749FB08B172B6FEE785
:1014F0000FA80F951194FFF7CBFA002801D072B610
:10150000FEE713B030BD704710B5406A0021C185B9
:10151000C184FFF7C4FD10BD0168CA6822F490724F
:10152000CA6001684A6922F001024A61016B01291F
:1015300004D10168CA6822F01002CA60202180F834
:101540003E1000210163704708B590F83E10222933
:1015500001D0022008BD82684FF480539A4201D125
:10156000016921B1816A9A421BD04AB10AE002683E
:10157000816A5268C2F308020A80816A891C08E005
:10158000026972B10268526802F07F020A70816AD1
:10159000491C8162C18D491E0904090CC18503D013
:1015A00019E002685268F1E70168CA6822F0200277
:1015B000CA600168CA6822F48072CA6001684A6918
:1015C00022F001024A61202180F83E10016B0129BE
:1015D00003D0FFF7DDFE002008BD00210163016894
:1015E000CA6822F01002CA6001680A68D20602D5F1
:1015F0000A6849680091818DFFF750FDEBE7000014
:1016000070B5044600680169E26821F44051114355
:1016100001612169A0680843616908432168CA68BB
:1016200041F20C639A430243CA6020684169A2698F
:1016300021F44071114341611E492068884202D162
:10164000FFF742FB01E0FFF72FFB00EBC00101EBCE
:101650000012606864218000B2FBF0F3B3FBF1F389
:101660006FF018067343B2FBF0F5B2FBF0F605EB32
:101670008305322303EB0515B5FBF1F5B6FBF1F657
:1016800005F0F00505EB0615B2FBF0F6B2FBF0F045
:10169000B0FBF1F06FF01802504306EB800003EB53
:1016A0000010B0FBF1F0216800F00F0028448860C2
:1016B00070BD0000003801400148FFF7F1BC000098
:1016C00040000020FEE70907090E002804DB00F1B6
:1016D000E02080F80014704700F00F0000F1E020D7
:1016E00080F8141D70470000FFF742F9FFF7D0FEA5
:1016F000FFF77AFE0B480A490C2201604FF4E131F2
:10170000416000218160C160C0E904128161C16152
:10171000FFF7CCFD08B172B6FEE7FFF73DFEFEE72E
:1017200000380140400000200000000000000000E0
:101730000102030406070809000000000102030477
:1017400060170008000000201000000028010008B9
:101750007017000810000020D8060000440100089F
:101760000100000010000000000000000024F40050
:04000005080000ED02
:00000001FF
