:020000040800F2
:10000000A80B0020A101000847230008992200083E
:100010004523000889120008F127000800000000AD
:100020000000000000000000000000004B2300085A
:100030000514000800000000492300087923000887
:10004000BB010008BB010008BB010008BB010008A0
:10005000BB010008BB010008BB010008BB01000890
:10006000BB010008BB010008BB010008BB01000880
:10007000BB010008BB010008BB010008BB01000870
:10008000BB010008BB010008BB010008BB01000860
:10009000BB010008BB010008BB010008BB01000850
:1000A000BB010008BB010008BB010008BB01000840
:1000B000BB010008BB010008BB010008BB01000830
:1000C000BB010008BB010008BB010008BB01000820
:1000D000BB010008BB010008E5270008BB010008C0
:1000E000BB010008BB010008BB01000800F002F8DA
:1000F00000F047F80AA090E8000C82448344AAF17B
:100100000107DA4501D100F03CF8AFF2090EBAE878
:100110000F0013F0010F18BFFB1A43F0010318473B
:100120003C2A00005C2A0000103A24BF78C878C13D
:10013000FAD8520724BF30C830C144BF04680C60ED
:10014000704700000023002400250026103A28BF35
:1001500078C1FBD8520728BF30C148BF0B60704739
:10016000662902F09A84002070471FB500F092FBC8
:1001700004000020002102F0EFFBE0601FBD10B57D
:1001800010BD00F084FC1146FFF7EFFF02F072FB98
:1001900000F0A2FC03B4FFF7F2FF03BC00F0A6FCE2
:1001A0000948804709480047FEE7FEE7FEE7FEE70B
:1001B000FEE7FEE7FEE7FEE7FEE7FEE70448054947
:1001C000054A064B70470000DB230008ED000008DD
:1001D000A8050020A80B0020A8070020A8070020E1
:1001E0000FB41CB5084B06AA7B44694600900598DD
:1001F00000F033FB04460020694600F041FB204636
:100200001CBC5DF814FB0000950600002DE9F05FB2
:10021000894604464FF0000ADFF824B1FB44C0F8D9
:1002200020A02046E168884700287DD0252806D0F8
:10023000D4E901219047206A401C2062F1E70025A3
:100240005F462046E16888472028064607DB312EB6
:1002500005D2B81910F8200C08B10543F1E7A8073A
:1002600001D525F00405C4F81CA00027C4F818A087
:100270002A2E09D0304602F0E0FA38B304EB8708A2
:10028000303EC8F8186019E059F8041B204604EB0A
:1002900087029161E1688847012F064618D1E0691D
:1002A000002820DA25F020051DE0D8F8180000EB22
:1002B000800006EB40003038C8F818002046E1689E
:1002C0008847064602F0B9FA0028EED1012F0AD07D
:1002D0002E2E08D12046E16888477F1C0646022F53
:1002E00045F02005C4DBA069002803DA404245F050
:1002F0000105A061E80701D025F01005A6B1A6F11F
:100300004100192802D8203645F400654A46314696
:10031000204625604D46FFF723FF60B1012807D036
:10032000ED1D25F0070000E007E000F1080978E77F
:1003300005F1040975E730467AE7206ABDE8F09FC9
:1003400096280000421E12F8013F002BFBD111F845
:10035000013B002B02F8013BF9D170474FF000023E
:1003600000B5134694469646203922BFA0E80C50AB
:10037000A0E80C50B1F12001BFF4F7AF090728BF86
:10038000A0E80C5048BF0CC05DF804EB890028BF02
:1003900040F8042B08BF704748BF20F8022B11F02B
:1003A000804F18BF00F8012B704700004FF0013C50
:1003B00050F8042B51F8043B9A4221D1A2EB0C03D4
:1003C000934313EACC1317D150F8042B51F8043B94
:1003D0009A4215D1A2EB0C03934313EACC130BD131
:1003E00050F8042B51F8043B9A4209D1A2EB0C03BC
:1003F000934313EACC13DBD04FF00000704700BFEB
:10040000D01A01BAB1FA81F101F0180122FA01F013
:10041000CB40C1F12001DBB2C0B2C01A2CFA01F30B
:10042000D11A914311EAC311E6D170477047704762
:10043000704770472DE9FF4F0C461E464FF0FF37BF
:100440008BB0D2E90001DDF860800A908A46C1F3E2
:100450000A5505B93D46002108464FF00000BAF1A3
:10046000000F00F4400005DA00EB80004FF440017B
:1004700001EA50004FEA9059B9F1010F00DDB94689
:100480000A9850EA4A000ED044F61050A5F2FF3503
:1004900045432F14B8F1000F1ED07542291E1EDDF2
:1004A000C9F100021CE0B8F1010F4FF0000001D0CB
:1004B000302103E0F24305E02154401CB042FBDB55
:1004C00030460022002121540B99C1F80880C1E96F
:1004D00000200FB0BDE8F08FBD1B6D1CDEE74A4663
:1004E00000DA694206A800F05FFA06AB93E807005D
:1004F00003AB83E8070050460A9900F0FDFA8DE847
:100500000700A0F500501F3800900398002D0ADD69
:1005100042F21F014A460844002303A9039068469B
:1005200000F066FD09E0A0F500504A461F380023A0
:1005300003A90390684600F070FD8DE807000004F1
:10054000000C03D04FF0FF30410800E01046B8F136
:10055000000F03D00022009215461EE0751E05D440
:1005600000F09CF9303262556D1EF9D5B346012278
:10057000084302D000227F1C04E02078302801D1FB
:1005800000227F1E002A099784D01DE0112D07DA72
:1005900000F084F9303262556D1C50EA0102F5D149
:1005A000084302D00098C8B10EE00021681E05E0A3
:1005B000235C625C63542254401E491C8142F7DB79
:1005C000AB46A81B401E0990002004F80B000B98B6
:1005D000099AC0F80880C0E9002B7AE711264FF08D
:1005E000000857E72DE9F04F88460446D21D22F057
:1005F000070191B0D1E90001CDE90A0102F0F9F853
:1006000002460B98C00F01D02D2007E0206881071B
:1006100001D52B2002E0202101EAC000032A099025
:1006200001D0072A05DB03464146204600F07CF94D
:100630000BE12078800601D5E06900E00620B8F1E2
:10064000650F814606D0B8F1660F18D0B8F1670F74
:1006500070D131E00020B9F1110F009001DB1123BE
:1006600001E009F101030AAA01A90CA8FFF7E2FEC3
:10067000DDE90C70002609F10105834647E0012001
:100680004B4600904FF000470AAA01A90CA8FFF7BB
:10069000D1FEDDE90DB00C995D46002610B909F1D7
:1006A00001000D18B9EB050003D4C0F1FF3609F1C4
:1006B0000105A5EB09002BE0B9F1010F01DA4FF0BC
:1006C00001090020B9F1110F0090484601DD112306
:1006D00000E003460AAA01A90CA8FFF7ABFEDDE97A
:1006E0000C704D4600268346207800070AD4AB459F
:1006F00000DA5D4601A8012D04DD411911F8011C45
:10070000302907D04F4502DA17F1040F04DA01202F
:1007100082460FE06D1EEEE7002F02DCED1B3E442B
:1007200003E0781CA84200DD7D1CB81B00F1010A23
:100730004FF000472078000703D4AA4501DB4FF0B3
:10074000FF3A0021B7F1004F0DF143088DF8431037
:1007500024D002202B23002F01DA7F422D230A21EF
:10076000021EA0F1010000DC5FB197FBF1FC97FBDA
:10077000F1F201FB1C7C17460CF1300C08F801CD9E
:10078000EEE7A8F1010003702188090501D5452194
:1007900000E06521A0F1010800F8011C09980FA9EB
:1007A000A1EB0807FF1D00B10120411901EBEA7020
:1007B000A1693844081A401EA0612078C00602D4FE
:1007C0002046AFF30080099828B1D4E90121904771
:1007D000206A401C20622078C00622D52046AFF354
:1007E00000801EE0002E04DBB34502DD01A8805D21
:1007F00000E03020D4E901219047206A401C2062AB
:10080000761CAAF101005FEA000A0AD100F042F862
:10081000C0680168405CD4E901219047206A401C0F
:100820002062281EA5F10105DCDC07E0D4E90121E6
:1008300018F8010B9047206A401C2062381EA7F16F
:100840000107F3DC2046AFF30080032011B041E63E
:1008500001694A1C02610878704700B58FB0CDE984
:1008600001310021059105497944CDE90310114674
:100870006846FFF7CBFC0FB000BD0000E5FFFFFFAF
:100880000A6802F8010B0A607047000000487047D0
:1008900044050020004870476405002030B5B0F1E1
:1008A0000A024FEA900E71F100034EEA817EB0EB2E
:1008B0000E0061EB91014FEA101E4EEA017E10EB33
:1008C0000E0041EB11114FEA102E4EEA016E10EBB3
:1008D0000E0041EB11214FEA104E4EEA014E10EB93
:1008E0000E0041EB1141401841F100014FEAD000E8
:1008F00040EA41704FEAD10110EB80054FEA8104D4
:1009000044EA907444EB01046D1944EB0404521B57
:10091000A3414FF0000348BF0A3200D530BD401C50
:1009200041F1000130BD00002DE9F0411F460446B1
:1009300003260168072A01F4006004DB08B116A54C
:1009400005E016A503E008B115A500E015A521F006
:1009500010002060A069C01EA0610FB1401EA06100
:100960002046AFF300804FB1D4E9012138469047CB
:10097000206A401C2062C01C206206E0206AFAE760
:10098000D4E9012115F8010B9047761EF8D22046D4
:10099000AFF30080BDE8F0814E414E006E616E0005
:1009A000494E4600696E66002DE9F04781461646BD
:1009B0008AB0354878440DC88DE80D003248784437
:1009C000801C03AC0DC884E80D0041F69B30084440
:1009D000372190FBF1F290FBF1F5A5F1800501FBC9
:1009E00012041B3C02D56442012000E00020DFF825
:1009F00098A080460027FA44AAF1BE0A0EE0E0075C
:100A00000AD03246684607EB470101230AEB810111
:100A100000F003FB8DE8070064107F1C002CEED172
:100A2000194F7F44AE3F19E0E80715D007EB0410DB
:100A30000DF1180A90E80E008AE80E00C068F04236
:100A400001D1981908903246012306A903A800F0A5
:100A5000E4FA03AB83E807006D10641C002DE3D1BA
:100A60004FF0010332466946B8F1000F03A802D0E7
:100A700000F0BEFA01E000F0D0FAC9E90001C9F8BF
:100A800008200AB0BDE8F0878C2100007047754649
:100A9000FFF7FCFEAE4605006946534620F007000E
:100AA000854618B020B5FFF789FBBDE820404FF020
:100AB00000064FF000074FF000084FF0000B21F048
:100AC0000701AC46ACE8C009ACE8C009ACE8C00915
:100AD000ACE8C0098D46704710B50446AFF30080FE
:100AE0002046BDE81040FFF755BB00000149182023
:100AF000ABBEFEE7260002005FEA400C08BF91F0A3
:100B0000000F4FEA8C234FEAC12243EA51514FEACA
:100B10001C5018BF00F5F0404FEA300018BF41F0FC
:100B200000415FEA6C5C00F02980BCF1FF3F08BF28
:100B300040F080407047130C06BF12044FF0100CB9
:100B40004FF0000C130E04BF12020CF1080C130F2F
:100B500004BF12010CF1040C930F04BF92000CF1BE
:100B6000020CD30F04BF52000CF1010C11464FF0E0
:100B70000002A0F11F00A0EB0C00704711F0004F25
:100B800008BF704731F000413FF4D5AF0B0C06BFF2
:100B900009044FF0100C4FF0000C0B0E04BF0902BB
:100BA0000CF1080C0B0F04BF09010CF1040C8B0FA6
:100BB00004BF89000CF1020CCB0F04BF49000CF1FB
:100BC000010CCCF12003A0EB0C0022FA03F302FA93
:100BD0000CF241EA030100F10100704720F07F4C64
:100BE00080EA030023F07F47ACEB070303F57C5357
:100BF00000F0004003F1FF032DE980494FEA154B57
:100C000009B44FEA144325EA0B4E24EA03480FF2D5
:100C1000042606EB132749083E785FEA320203FBFD
:100C20000667C7F5000707FB06F64FEA54374FEA99
:100C3000D64606F1020607FB066CCCF1005C4FEAD3
:100C40001C472CEA074C07FB06F40CFB06F504EBEB
:100C500015464FEA961634BF00204FF000404FEA89
:100C6000D13706FB07FC4FEA1C4C0CFB0BF7D21BE1
:100C700003FB0CF761EB07010CFB0EF7B0EB074031
:100C800072EB17420CFB08F734BFA2EB0742B2EB42
:100C9000074261EB17414FEA0C444FEA910706FB0C
:100CA00007FC4FEA1C4C0CFB0BF7B0EBC74072EB98
:100CB000573203FB0CF734BFA2EBC742B2EBC7427B
:100CC00061EB57310CFB0EF7B0EBC70072EB5772BC
:100CD0000CFB08F734BFA2EBC702B2EBC70261EB13
:100CE0005771039F4FEA816141EA921104EBCC04F2
:100CF0004FEAD1374FEA826206FB07FC42EA9012C4
:100D00004FEA80604FEA1C4C0CFB0BF7D21B03FB35
:100D10000CF761EB07010CFB0EF7B0EB074072EB31
:100D200017420CFB08F734BFA2EB0742B2EB0742B5
:100D300061EB17414FEA8C554FEA910704EB9C2475
:100D400006FB07FC4FEA1C4C0CFB0BF7B0EBC74053
:100D500072EB573203FB0CF734BFA2EBC742B2EB86
:100D6000C74261EB57310CFB0EF7B0EBC70072EBDB
:100D700057720CFB08F734BFA2EBC702B2EBC702F5
:100D800061EB577115EB4C254FEA816141EA9211F5
:100D90004FEA82624FEAD13742EA901206FB07FC23
:100DA00044F100044FEA80604FEA1C4C0CFB0BF747
:100DB000D21B03FB0CF761EB07010CFB0EF7B0EB4A
:100DC000074072EB17420CFB08F734BFA2EB074257
:100DD000B2EB074261EB174115EB1C154FEA81316D
:100DE00041EA92414FEA823242EA90424FEA803031
:100DF0004FEA0C7644F1000448EA03434EEA0B48FC
:100E00004FF0000EB2EB080C71EB030724BF6246F3
:100E100039464EEB0E0E4FF0000B0018524149417F
:100E20004BEB0B0BB2EB080C71EB03077BF1000BE8
:100E300024BF624639464EEB0E0E4FF0000B0018F1
:100E4000524149414BEB0B0BB2EB080C71EB030722
:100E50007BF1000B24BF624639464EEB0E0E51EA81
:100E6000020718BF46F0010616EB0E7655F1000298
:100E700054F1000103D5BDE88901BDE80088BDE853
:100E80008901BDE80048B619524141EB0101A3F1C7
:100E90000103704780807F7E7D7C7B7A79787776CE
:100EA00076757473727171706F6E6E6D6C6C6B6A47
:100EB0006A696868676666656464636362616160E5
:100EC000605F5F5E5E5D5D5C5C5B5B5A5A59595862
:100ED00058575756565555555454535352525251CC
:100EE000515050504F4F4F4E4E4D4D4D4C4C4C4B22
:100EF0004B4B4A4A4A494949484848474747474669
:100F000046464545454444444443434343424242A4
:100F100042414141002B9C4630D477002BD01CB578
:100F20004FEA370703B44FF010004FF01001BAF149
:100F3000000F06D0BCF1000FDCBF40F0080040F00D
:100F400008014FF000000FBCBDE810400BF1010B91
:100F5000BBF1010F08BF5FEA170722BF12F10102C0
:100F600011F101014FF0004143F1000300F0004096
:100F700043EA00007047F9D35708D0E746EA06462F
:100F800013F1400F4FEA16461FDD13F1200FDFBFAC
:100F900016430A46002120335B42BED0C3F120072E
:100FA00046EA064602FA07F74FEA164646EA0706F9
:100FB000C3F1200722FA03F201FA07F721FA03F13D
:100FC0004FF0000342EA0702A7E746EA020646EAB4
:100FD00006464FEA164646EA0106BCBF46EA064602
:100FE000360C4FF000034FF000024FF0000194E781
:100FF0002DE9804C9A46934670B491E8380007C8B2
:1010000031EA400C48BF34EA430C03D5FFF7E6FD54
:10101000FFF780FFF0BCBDE8008C2DE9804C9A46BC
:10102000934670B491E8380007C810F0804F08BFAD
:1010300013F0804F03D100F005F8FFF76BFFF0BC11
:10104000BDE8008C20F07F4780EA030023F07F4C4E
:1010500007EB0C03A3F57C5300F00040A3F1FE0363
:1010600092F0000F00F0B38095F0000F00F0778051
:101070002DE901494FEA11404FEA144621EA0048A0
:1010800000FB06FC24EA064708FB06F607FB08F807
:1010900000FB07F718EB06484CEB164C4FEA124BD7
:1010A00018EB07484FEA15464CEB174022EA0B4E67
:1010B0000BFB06FC25EA06470EFB06F607FB0EFEB9
:1010C0000BFB07F71EEB064E4CEB164C4FF00006E1
:1010D0001EEB074E4CEB174B18EB0B0840F10000D2
:1010E00018EB0E0B58EB000840F100008F1A4FF080
:1010F00000013CBFC943661B14BFB5EB040C0021C3
:101100003CBFC943F61B4FEA17444EEA8E0E27EA4E
:1011100004454FEA1C4704FB07622CEA074C05FB19
:1011200007F70CFB05F604FB0CFC16EB074642EB3D
:10113000174216EB0C4642EB1C421BEB060658EB23
:101140000202414146EA9E0601D5BDE80189B61971
:10115000524141EB0101A3F10103BDE801894FEACE
:1011600014454FEA114724EA054621EA074C05FBDE
:1011700007F406FB07F70CFB06F105FB0CFC11EB73
:10118000074144EB17444FEA124711EB0C4144EB83
:101190001C4422EA074C05FB07F206FB07F70CFB91
:1011A00006F605FB0CFC16EB074642EB174216EB66
:1011B0000C4642EB1C456A1854F1000148BF7047C9
:1011C000B619524141EB0101A3F10103704795F0BB
:1011D000000F37D04FEA11424FEA144721EA024686
:1011E00024EA074C02FB07F106FB07F70CFB06F4A9
:1011F00002FB0CFC14EB074441EB17414FEA154787
:1012000014EB0C4441EB1C4125EA074C02FB07F5AB
:1012100006FB07F70CFB06F602FB0CFC16EB074679
:1012200045EB174516EB0C4645EB1C42121951F1E4
:10123000000148BF7047B619524141EB0101A3F1CB
:10124000010370474FEA14454FEA114724EA054667
:1012500021EA074C05FB07F106FB07F70CFB06F23A
:101260004FF0000605FB0CFC12EB074241EB174167
:1012700012EB0C4251EB1C4148BF7047921841EBF6
:101280000101A3F101037047FEE7000070B50024DF
:10129000282001F0D9FA0A4D0221284600F0C4FAAC
:1012A00058B9502001F0D0FA0221284600F0BCFACB
:1012B00018B10124282001F0C7FA204670BD0000B3
:1012C0000008014070B5054600F058F8FFF7DEFF52
:1012D000124C012820701FD100F022F8607000F03D
:1012E0001FF8A07000F01CF8E07000F019F82071F1
:1012F00000F016F8E0806678A17823797218E1781A
:101300000A441A44824207D1084601F06DFB286066
:10131000304601F069FB686070BD000038000020B5
:101320002DE9F0410024144F01260221384600F037
:101330007BFA0028F9D01E2001F086FA02213846F7
:1013400000F072FA90B1C4F1070106FA01F02843E7
:10135000C5B20221384600F067FA0028F9D1641CB2
:10136000E4B2082CE1D32846BDE8F081C4F10700BF
:1013700006FA00F08543ECE70008014010B500F0E4
:101380001FF80E4C0221204600F0EAFF0022022145
:10139000204600F056FA44F2506001F055FA01225E
:1013A0000221204600F04DFA1E2001F04DFA2046A1
:1013B000BDE81040022100F0C9BF00000008014054
:1013C0000E48016821F080710160016841F0807170
:1013D00001600B48016821F001010160016841F0E2
:1013E000010101600021416000BF00BF00BF4068F3
:1013F00008B100207047012070470000FCED00E0BC
:10140000001000E0704700000C49CA68D207FCD108
:101410000A6942F002020A614861086940F040002E
:101420000861C868C007FCD1086920F001000861A4
:10143000086920F0020008617047000000200240A7
:101440002DE9F05F4FF0E0298B46D9F810101446D3
:10145000054621F00201C9F81010DFF85480DFF8CA
:1014600054A098F80070DAF8006000F0D9F8002075
:10147000014602E02954401C80B2A042FAD3002069
:1014800005E000BF1BF810102954401C80B2A04298
:10149000F8D300F0BBF888F80070CAF80060D9F8FB
:1014A000101041F00201C9F81010BDE8F09F0000D3
:1014B000400000204800002070B515460C46064646
:1014C00000F0AEF82046FFF79FFF0E4B186940F082
:1014D00001001861002007E0D968C907FCD1315C20
:1014E00024F81010401C80B2A842F5D3D868C00779
:1014F000FCD1186920F001001861BDE8704000F0CF
:1015000085B800000020024010B590F8211000229C
:10151000022905D00421816380F82020012010BD1C
:1015200001680B6823F00E030B6001680B6823F061
:1015300001030B6090F84030C46B012101FA03F302
:10154000636080F8211080F82020104610BD000054
:1015500010B590F821100024022903D004218163E2
:1015600001243DE001680A6822F00E020A60016869
:101570000A6822F001020A601A4A0168914201D108
:10158000012121E0174A1432914201D110211BE0C0
:10159000144A2832914201D1891515E0114A3C3292
:1015A000914201D189140FE00E4A5032914202D18A
:1015B0004FF4803108E00B4A6432914202D14FF47B
:1015C000801101E04FF08071064A083A5160012114
:1015D00080F82110002180F82010416B01B188476C
:1015E000204610BD0800024070B5044600F02EF9F8
:1015F0000546601C02D004480078044400F026F937
:10160000401BA042FAD370BD40000020034801698E
:1016100041F080010161002070470000002002407D
:10162000064900200A69120607D5054A4A60054A9C
:101630004A600969090600D5012070470020024070
:1016400023016745AB89EFCD2DE9F84FDFF8B8915D
:10165000002409F1040A0AF1040B23460F270BF1B9
:10166000040EC9E00125A5402A40AA427DD1674E5B
:10167000D1F804C0ACEB0608B44532D014DCBCF1A0
:10168000030F3AD009DCBCF1000F2AD0BCF1010FE6
:101690001CD0BCF1020F31D11DE0BCF1110F17D0ED
:1016A000BCF1120F2AD119E0B8F5881F19D006DC59
:1016B000B8F5803F15D0B8F5801F1FD111E0B8F5FF
:1016C000001F0ED0B8F5041F18D10AE0CB6815E052
:1016D000CB681B1D12E0CB6808330FE0CB680C33DE
:1016E0000CE08B682BB1012B4FF0080303D0456150
:1016F00004E0042302E0056100E00023FF2A01D892
:10170000064601E000F104064FEA840501D9A5F17F
:101710002005D6F8008007FA05FC28EA0C0803FA31
:1017200005F548EA0508C6F800804D68ED0062D569
:10173000374DAE6946F00106AE61AD6924F003068F
:1017400005F001050095334D06EB050CDCF808505B
:10175000A607360F07FA06F825EA0805DFF8B8806D
:10176000404503D14FF0000817E044E0DFF8AC80BB
:10177000404502D14FF001080FE0DFF8A48040455A
:1017800002D14FF0020808E0DFF89880404502D10E
:101790004FF0030801E04FF0040808FA06F848EAA1
:1017A0000508CCF808804D68D9F80060ED034D4677
:1017B00001D5164300E096432E604D68DAF80060CC
:1017C000AD03554601D5164300E096432E604D68A3
:1017D000DBF80060ED025D4601D5164300E096435C
:1017E0002E604D68DEF80060AD02754601D51643E7
:1017F00000E096432E60641C0D682A46E5407FF4A5
:1018000031AFBDE8F88F0000000401400000111066
:10181000001002400000014000080140000C01409F
:1018200000100140001401408068084000D00120F1
:101830007047C26821EA02030A4043EA024101619B
:1018400070470AB1016170470904FBE701488068ED
:10185000704700004000002002488168027811446F
:101860008160704740000020074810B5016841F0D2
:1018700010010160032000F075F80F2000F006F859
:1018800000F024F8002010BD0020024070B50D4D7E
:1018900004464FF47A712878B1FBF0F00A490968E0
:1018A000B1FBF0F000F0F2FA48B9102C07D2002298
:1018B0002146501E00F036F800206C6070BD0120FB
:1018C00070BD0000400000204C0000200C4808B50E
:1018D000816941F001018161816901F0010100919B
:1018E000C16941F08051C161C06900F08050009031
:1018F0000448416821F0E06141F00071416008BD99
:101900000010024000000140002809DB00F01F0227
:10191000012191404009800000F1E020C0F8001151
:1019200070470000F0B40E4B1B680C46C3F3022353
:10193000C3F10705042D00D90425191D072901D27B
:10194000002300E0DB1E012606FA05F1491E2140B6
:1019500099409E40761E16403143F0BC00F05DBFBA
:101960000CED00E0064900F0070208684FF6FF039F
:10197000184040EA0220034A104308607047000004
:101980000CED00E00000FA052DE9F0470F460500D8
:1019900061D0434E306800F00700B84209D2306889
:1019A00020F0070038433060306800F00700B8428C
:1019B00051D128683B4C810712D5400703D5606898
:1019C00040F4E06060602878000703D5606840F468
:1019D000605060606068A96820F0F00008436060B3
:1019E0002878C00728D06868012810D0216802280C
:1019F00010D0890700292EDA616821F00301014324
:101A00006160FFF723FF804641F288390DE02168CD
:101A10008903EFE78901EDE7FFF718FFA0EB080165
:101A2000494502D90320BDE8F0876068696800F085
:101A30000C00B0EB810FEFD1306800F00700B84226
:101A40000BD9306820F0070038433060306800F070
:101A50000700B84201D00120E5E72878400705D506
:101A60006068E96820F4E060084360602878000757
:101A700006D56068296920F4605040EAC1006060C2
:101A800000F03EF86168084AC1F30311515CC84098
:101A90000649086006480068FFF7F8FE0020C2E724
:101AA00000200240001002409E2A00084C00002046
:101AB0004400002001480068704700004C000020EE
:101AC0000448054900684968044AC1F30221515C91
:101AD000C84070474C00002000100240AE2A0008A9
:101AE0000448054900684968044AC1F3C221515CB1
:101AF000C84070474C00002000100240AE2A000889
:101B000012A185B00FC98DE80F0014A0144A006817
:101B100004905168134801F00C03042B10D0082BDB
:101B20000ED1C1F38343C9031DF803000AD55168E0
:101B300004AAC1F34041515C0A4A5043B0FBF1F0A2
:101B400005B0704708494843FAE70000020304055E
:101B5000060708090A0B0C0D0E0F101001020000F9
:101B60000010024000127A0000093D002DE9F84FF4
:101B7000040070D02078C04DC00749D06868C0F319
:101B80008100012807D06868C0F38100022809D1CC
:101B90006868C00306D52868800339D560680028C6
:101BA000E7D035E06068B0F5803F0BD010B1B0F5FC
:101BB000A02F11D0286820F480302860286820F4F5
:101BC000802002E0286840F480302860606890B18E
:101BD000FFF73CFE06460AE0286840F480202860B3
:101BE000F0E700BFFFF732FE801B642873D8286837
:101BF0008003F7D50CE0FFF729FE064605E000BF9D
:101C0000FFF724FE801B6428F0D828688003F7D4EF
:101C100020789A4E80074FF001094FF0000839D51F
:101C2000686810F00C0F07D06868C0F381000228C4
:101C300009D16868C00306D42868800714D52069D4
:101C4000012808D110E02069B0B1C6F80090FFF774
:101C5000FDFD074605E00AE1FFF7F8FDC01B02287D
:101C6000C4D828688007F7D52868616920F0F80093
:101C700040EAC10028600DE0C6F80080FFF7E6FDED
:101C8000074604E0FFF7E2FDC01B022823D82868BE
:101C90008007F7D4207800072CD57948A169D9B1FD
:101CA000C0F80090FFF7D2FD074604E0FFF7CEFD35
:101CB000C01B02280FD8686A8007F7D571484FF417
:101CC000FA510068B0FBF1F0009000BF0098411E8F
:101CD0000091FAD20EE080E0C0F80080FFF7B6FD78
:101CE000074604E0FFF7B2FDC01B022875D8686AFA
:101CF0008007F7D42078400760D5E8690027C00046
:101D000008D4E86940F08050E861E869012700F0F4
:101D1000805000905C480168C90513D4016883466F
:101D200041F480710160FFF791FD824606E000BF3B
:101D3000FFF78CFDA0EB0A0064284ED8DBF800000A
:101D4000C005F5D5E06801280AD008B1052813D0F0
:101D5000286A20F001002862286A20F0040002E0CE
:101D6000286A40F001002862E06841F2883B98B19F
:101D7000FFF76CFD82460BE0286A40F00400286201
:101D8000EEE700BFFFF762FDA0EB0A0159455AD804
:101D9000286A8007F6D50CE0FFF758FD824605E07B
:101DA000FFF754FDA0EB0A0159454CD8286A80077B
:101DB000F6D41FB1E86920F08050E861E06988B38B
:101DC0006968C1F38101022944D00228C6F8608005
:101DD00004D0FFF73BFD044638E034E0FFF736FD62
:101DE000074604E0FFF732FDC01B02282BD8286805
:101DF0008001F7D4206AB0F5803F05D16868A168FA
:101E000020F4003008436860D4E908010843696899
:101E100021F4741108436860C6F86090FFF716FD5E
:101E2000044606E025E000BFFFF710FD001B022876
:101E300009D828688001F7D51BE000BFFFF706FD31
:101E4000001B022802D90320BDE8F88F2868800112
:101E5000F4D40EE00128F7D06868226A00F48031DB
:101E6000914204D1616A00F47010884201D00120CF
:101E7000EAE70020E8E700000010024000004242CC
:101E8000800442424C0000200070004010B5401E0B
:101E9000B0F1807F01D3012010BD4FF0E0246061DC
:101EA0000F21601700F0B9FC0020A061072020611D
:101EB000002010BD70477047F8B5026804461068EE
:101EC000D168536910F00F0F4FF0000553D003F0A5
:101ED000010601F4907737435FD0C20705D0CA05E9
:101EE00003D5226C42F001022264420705D5DA07CD
:101EF00003D0226C42F002022264820705D5DA0781
:101F000003D0226C42F004022264020707D501F0DC
:101F10002002324303D0226C42F008022264226C79
:101F2000002A34D0800604D5880602D5204600F069
:101F300053FB20684069216CC0F38010090700D46E
:101F400030B3204600F030FB2068416949061BD5BC
:101F5000416921F040014161A06BA8B1584941633A
:101F6000A06BFFF7F5FA002811D0A06B416B01B010
:101F7000BDE8F040084783060FD58B060DD52046F7
:101F8000BDE8F84000F028BB2046FFF794FFF8BDFD
:101F90002046FFF790FF2564F8BD266B2023012E15
:101FA00052D1C60650D5CE064ED510685068009066
:101FB000506940062AD5A16B086840680004000CEF
:101FC000EAD0A68D8642E7D9E0858869202818D016
:101FD000D06820F48070D0602068416921F0010150
:101FE00041612068416921F04001416184F83E303F
:101FF00025632068C16821F01001C160A06BFFF764
:1020000083FAA08DE18D401A81B219E0A08DE18D97
:10201000401A81B2E08D0028BED00029BCD0D06823
:1020200020F49070D0602068426922F00102426181
:1020300084F83E3025632068C26822F01002C26036
:102040002046FFF737FFF8BD05062BD50D0629D52D
:1020500094F83D002128F6D1A068B0F5805F01D149
:102060002069B0B1206A411C216221680078486073
:10207000E08C401E0004000CE084E4D12068C168BC
:1020800021F08001C1602068C16841F04001C16059
:10209000F8BD206A0088C0F308005060206A801CE8
:1020A0002062E5E74006F3D54806F1D5D168204621
:1020B00021F04001D16084F83D3000F0ECF8F8BD2B
:1020C0009925000870B5040004D094F83D0000255F
:1020D00010B106E0012070BD84F83C50204600F0AD
:1020E00023F8242084F83D002068C16821F40051C1
:1020F000C160204600F0CCFA2068016921F49041CB
:1021000001612068416921F02A0141612068C168AC
:1021100041F40051C1602564202084F83D0084F81A
:102120003E00002070BD000030B585B00024009452
:102130000194029403940068184988422BD11848EE
:10214000C16941F40031C161C16901F400310491F8
:10215000816941F0040181618069124D00F0040041
:10216000049004200090022001900320039069460F
:102170002846FFF769FA0820CDE900046946284699
:102180000294FFF761FA002211462620FFF7CAFBEE
:102190002620FFF7B9FB05B030BD00000044004029
:1021A000001002400008014090F83E30202B0ED174
:1021B00059B152B190F83C30012B08D0012380F87E
:1021C0003C300023036300F0BFBA012070470220B7
:1021D0007047000002488169491C81617047000016
:1021E000000000202DE9F843044690F83D001F460A
:1021F00016460D4620284CD1C5B1BEB194F83C001E
:10220000012846D0012084F83C004FF00008C4F8B3
:102210004080212084F83D00FFF718FBA68481460A
:10222000E684A068B0F5805F03D004E00120BDE83B
:10223000F883206928B12E465FF0000584F83C80C1
:102240000EE00026FAE78021204600F098FAA0B9B7
:10225000AEB116F8010B21684860E08C401EE084A6
:10226000E08C4B464FF0000200970028EBD14FF076
:102270004001204600F083FA30B10320D7E735F85B
:10228000020BC0F30800E6E7202084F83D000020A0
:10229000CDE70220CBE77047FEE700002DE9F041D3
:1022A00086B0002424480094019402940394816928
:1022B00041F010018161816901F01001049181698F
:1022C00041F020018161816901F02001049181695F
:1022D00041F0040181618069184F00F004004FF45F
:1022E00000550490002229463846FFF7AAFADFF885
:1022F0005080002202214046FFF7A3FA0126CDE9D3
:102300000056022569463846CDE90245FFF79CF99B
:10231000CDE9005669464046CDE90245FFF794F9FC
:102320001020CDE90004694640460294FFF78CF97D
:1023300006B0BDE8F081000000100240001001402E
:1023400000080140FEE7FEE7704770471FB5002216
:1023500000910192029203926946FFF775F91FBD41
:102360001FB5002200910121CDE901120221039144
:102370006946FFF769F91FBDFFF76EBA30B58FB038
:1023800028216846FDF7EAFF14210AA8FDF7E6FFB9
:1023900001210804CDE900100024029402250491D3
:1023A000CDE907504FF4E01009906846FFF7DEFBD7
:1023B00008B172B6FEE70F20CDE90A054FF4806040
:1023C000CDE90C4002210AA80E94FFF7DDFA00289F
:1023D00001D072B6FEE70FB030BD704710B50548AA
:1023E000FEF770FF0348A0F1300102680A60406800
:1023F000486010BD30000020074810B503C800F049
:1024000071F80649BDE810404FF47A733222A1F505
:102410009260FFF7E7BE000000000020E00400200B
:102420002DE9F0470020144D07464FF4FA722F545F
:10243000401C9042FBDB11490F48FFF701F80024D4
:10244000DFF83C8026464FF47A79002041462A5D29
:102450000A54401C641C2028F9DB09494B46202201
:10246000A1F2C240FFF7BEFE761C032EEDDB05484D
:102470000761BDE8F08700008802002002D801084B
:10248000120500200000002070B5124C0FE000BFC4
:10249000D4E9000100F026F860690F49401C606132
:1024A0002069401C2061A1F24C40FDF74BFF6069A0
:1024B0000328EDDB4FF4FA752A4608490848FEF771
:1024C000FBFF0021064A084661611154401CA842E6
:1024D000FBDB70BD00000020E004002002D80108F2
:1024E0009400002070B5214E05460C46002006F1F0
:1024F0003202014602F13203315411541954401C86
:102500003228F9DB284600F043FA02460B4618A1B0
:102510001648FDF765FE204600F03AFA02461348D9
:102520000B4613A13230FDF75BFE104812A1643058
:10253000FDF708FF0D4901F16400FDF703FF0B48AB
:1025400010A16430FDF7FEFE08480FA16430FDF7CE
:10255000F9FE0649323101F13200FDF7F3FEBDE824
:10256000704002480BA16430FDF7ECBE7C040020F3
:10257000252E3266000000007B2274656D70223AC1
:1025800022000000222C00002268756D69223A2288
:1025900000000000227D0A0010B5406A0021C185BC
:1025A000C184FFF788FC10BD0168CA6822F49072EC
:1025B000CA6001684A6922F001024A61016B01297F
:1025C00004D10168CA6822F01002CA60202180F894
:1025D0003E1000210163704708B590F83E10222993
:1025E00001D0022008BD82684FF480539A4201D185
:1025F000016921B1816A9A421BD04AB10AE002689E
:10260000816A5268C2F308020A80816A891C08E064
:10261000026972B10268526802F07F020A70816A30
:10262000491C8162C18D491E0904090CC18503D072
:1026300019E002685268F1E70168CA6822F02002D6
:10264000CA600168CA6822F48072CA6001684A6977
:1026500022F001024A61202180F83E10016B01291D
:1026600003D0FFF7B7FD002008BD0021016301681A
:10267000CA6822F01002CA6001680A68D20602D550
:102680000A6849680091818DFFF714FCEBE70000B0
:1026900070B5044600680169E26821F440511143B5
:1026A00001612169A0680843616908432168CA681B
:1026B00041F20C639A430243CA6020684169A269EF
:1026C00021F44071114341611E492068884202D1C2
:1026D000FFF706FA01E0FFF7F3F900EBC00101EBA9
:1026E0000012606864218000B2FBF0F3B3FBF1F3E9
:1026F0006FF018067343B2FBF0F5B2FBF0F605EB92
:102700008305322303EB0515B5FBF1F5B6FBF1F6B6
:1027100005F0F00505EB0615B2FBF0F6B2FBF0F0A4
:10272000B0FBF1F06FF01802504306EB800003EBB2
:102730000010B0FBF1F0216800F00F002844886021
:1027400070BD00000038014081628285C285002191
:102750000164222280F83E2080F83C100168CA689B
:1027600042F48072CA6001684A6942F001024A611B
:102770000068C16841F02001C160002070472DE968
:10278000F041984617460E460446069D1DE0681C1B
:102790001BD02DB1FFF75AF8A0EB0800A84214D9BE
:1027A0002068C16821F4D071C1602068416921F0BE
:1027B00001014161202084F83D0084F83E000020A2
:1027C00084F83C000320BDE8F0812068006836EA08
:1027D000000004D00020B842D9D00020F3E7012047
:1027E000F9E700000148FFF767BB00005000002038
:1027F000FEE7490050EAC12018BF04204A0D18BF67
:1028000040F0010040F2FF72B2EB515F08BF40F0B0
:102810000200012808BF052070470907090E00289B
:1028200004DB00F1E02080F80014704700F00F0096
:1028300000F1E02080F8141D704730380A2801D2DA
:10284000012070470020704731B5084D6C68FFF7D4
:1028500031F90749B0FBF1F00099484300906868EE
:102860000099001B8842FAD338BD0000001000E038
:1028700040420F00FEF7F8FFFFF780FDFFF70EFD67
:1028800032483149002401604FF4E131C0E90114BC
:102890000C21C460C0E904418461C461FFF712FCEB
:1028A00008B172B6FEE7052229492848FFF77CFCEB
:1028B000FEF7CCFF264D25491C3D4FF4FA72C5E9C1
:1028C0000A04002044310C54401C9042FBDB0126DA
:1028D0004FF47A77FEF7BAFFD5E90A12411A64EB92
:1028E00002004FF47A72891A70F100000ADB4FF48B
:1028F00000511848FEF79DFFFFF770FDFEF7A6FF99
:10290000C5E90A04A869012808D0FFF7BDFDC5E99B
:10291000024605220E490D48AC610BE0E86801282B
:1029200001D1A86860B1FFF767FDC5E9026405221F
:1029300007490648FFF738FC3846FEF755FEC9E759
:10294000FFF76EFDF1E7000000440040500000205A
:102950001C0000200010014010B500290AD00878A2
:10296000002807D005487844FDF720FD002801D055
:10297000002010BD0248784410BD0000160200007F
:102980000E0200000808A0F500114FEA310170475F
:1029900043004FEAD30C4FEA3C0C43401FBF4007B3
:1029A0000CF1605113F0FE4F70471CF0006F03D123
:1029B00000200CF0004170470CF0004343EA5070D7
:1029C00010B540EACC0000F022F800BF00000092F1
:1029D0004FEA0001FFF7D6BF4FF000414FF0000073
:1029E000A1F5002170470000B0FA80F310FA03F25D
:1029F000C3F19D030AD0D90501EB1220530638BF5D
:102A0000704700F1010008BF20F0010070470EF18F
:102A1000020E2EF0030E5EF8044B244204D44FEA5B
:102A20004102B2F17F4F11D84FEA4003B3F17F4F1B
:102A30000CD80ED14FEAD07CB2F17F4F0CEB4C0C8E
:102A40000CF1020C08BF4CEBD17C04E04FF0080CF9
:102A500001E04FEAD17C0CEB4C0324FA03F404F0C0
:102A60000704B4F1040C06D20EEB840CBDE8104050
:102A70004CF0010C6047DFE80CF0070802024FF051
:102A80000040A0F5800010BD0846420018BFD2F1FA
:102A9000807288BF00F0004010BDFDF7A3BD0000AC
:102AA00000000000000001020304060708090000FE
:102AB0000000010203040400000800000000000000
:102AC000000200010000100002400000000000A011
:102AD0000000000005400000000000C800000000E9
:102AE0000C4000000000409C000000001940000065
:102AF0000020BCBE0000000034400000BFC91B8E97
:102B000000000004B5400000504BCFD06607E2CF74
:102B1000010000006C4100003E8251AADFEEA734A4
:102B200001000000D9420000DCB5A0E23A301F9756
:102B3000FFFFFFFFB4450000FD25A0C8E9A3C14F7A
:102B4000FFFFFFFFFF3F00000000008000000000CB
:102B5000FF3F00000000008000000000982B0008EC
:102B6000000000205000000028010008E82B0008A9
:102B700050000020580B0000440100081C00000019
:102B800043000000F8FFFFFF0C0000000E000000F3
:102B90000F0000002E0000000000803F0000803F7A
:102BA0000100000000000000000000000000000024
:102BB0000000000000000000000000000000000015
:102BC0000000000000000000000000000000000005
:102BD00000000000000000000100000010000000E4
:082BE000000000000024F400D5
:04000005080000ED02
:00000001FF
