:020000040800F2
:10000000F0090020C501000883360008D535000836
:1000100081360008012700082D3A00080000000082
:10002000000000000000000000000000B5360008DD
:100030002D270008000000008536000871370008F1
:10004000DF010008DF010008DF010008DF01000810
:10005000DF010008DF010008DF010008DF01000800
:10006000DF010008DF010008DF010008DF010008F0
:10007000DF010008DF010008DF010008DF010008E0
:10008000DF010008DF010008DF010008DF010008D0
:10009000DF010008DF010008DF010008DF010008C0
:1000A000DF010008DF010008DF010008DF010008B0
:1000B000DF010008DF010008DF010008DF010008A0
:1000C000DF010008DF010008DF010008DF01000890
:1000D000DF010008DF010008213A0008DF01000805
:1000E000DF010008DF010008DF01000800F002F86E
:1000F00000F058F80AA090E8000C82448344AAF16A
:100100000107DA4501D100F04DF8AFF2090EBAE867
:100110000F0013F0010F18BFFB1A43F0010318473B
:100120006C4A00008C4A0000103A24BF78C878C19D
:10013000FAD8520724BF30C830C144BF04680C60ED
:10014000704700000023002400250026103A28BF35
:1001500078C1FBD8520728BF30C148BF0B60704739
:10016000642900F05B81732900F049840020704706
:100170001FB59DE8030000F083FB00F081FF040041
:100180000020002104F078FA401C6060002000216B
:1001900004F088FAE06001F05FF81FBD10B501F0CF
:1001A000C4F810BD01F02FF91146FFF7E1FF03F08D
:1001B000E7FE01F03BFD03B4FFF7F0FF03BC01F0E5
:1001C00073FD00000948804709480047FEE7FEE745
:1001D000FEE7FEE7FEE7FEE7FEE7FEE7FEE7FEE7F7
:1001E00004480549054A064B70470000D33700080C
:1001F000ED000008F0030020F0090020F0050020C9
:10020000F005002070B5064600F01AFB056806F1FF
:100210000B0020F00704B4429CBF002070BD2B46A9
:100220006A68BAB11068A04210D304F1080188428C
:100230003CBF5068586007D351681019416011687D
:10024000091B016058601460101D70BD1346526890
:10025000002AE7D12146284600F0FEFA0028DED128
:1002600070BD70B50446051F00F0EAFA0068002C66
:1002700014BF446870BD002C18BFAC423CBF204680
:100280006468F8D301680A18AA4218BF456003D110
:100290002A6805461144016028684119A1421CBF23
:1002A0006C6070BD6168696021680844286070BD39
:1002B00070B50D460646041F00F0C2FAD0F800C023
:1002C000C5B1E6B105F10B0020F00703AB423CBF1E
:1002D000002070BD2068984238BFDCF8042013D39A
:1002E000C11A08292FD3E01840F8041B2360FFF738
:1002F000B8FF28E03046FFF7B4FF002070BD284665
:10030000BDE87040FFF77EBF002A18BFA2423CBF85
:1003100094465268F8D30119914216D111680844E5
:10032000984212D3C11A08293CBF2060506808D3F4
:100330005168E0184160216812681144C91A0160CF
:100340002360CCF80400201D70BD181FFFF75AFF72
:10035000050007D021680A1F211D00F0CCF9201DDF
:10036000FFF77FFF284670BD10B5044600F060FA25
:100370000068005DC00602D504F1200010BD2046D3
:1003800010BD00000FB4044910B503AA029800F094
:100390003BFB10BC5DF814FBE40200200FB41CB55D
:1003A000084B06AA7B4469460090059800F0FDFAC8
:1003B00004460020694600F00BFB20461CBC5DF89B
:1003C00014FB00002906000070B50C460546012A02
:1003D00005D02878800600D5EA69002302E00123D1
:1003E00005E05B1C934202D2E05C0028F9D1A869C9
:1003F000E618C01AA861286A184428622846AFF394
:10040000008004E0D5E9012114F8010B9047B442C3
:10041000F8D32846AFF3008070BD00002DE9F0410D
:100420000646002410687529314616A510D0AFF392
:100430000080002802DA404213A507E031688A07ED
:1004400001D512A502E0490704D511A5012401E058
:10045000AFF3008000210A2206F1240709E0B0FB77
:10046000F2FCB0FBF2F302FB1C003030785418466B
:10047000491C0028F3D123462A463046BDE8F04106
:1004800000F034BA000000002D0000002B00000036
:10049000200000002DE9F05F894604464FF0000A75
:1004A000DFF824B1FB44C0F820A02046E16888476B
:1004B00000287DD0252806D0D4E901219047206A64
:1004C000401C2062F1E700255F462046E16888472E
:1004D0002028064607DB312E05D2B81910F8200C6B
:1004E00008B10543F1E7A80701D525F00405C4F8D4
:1004F0001CA00027C4F818A02A2E09D0304603F00B
:10050000BAFB38B304EB8708303EC8F8186019E02E
:1005100059F8041B204604EB87029161E168884783
:10052000012F064618D1E069002820DA25F02005C1
:100530001DE0D8F8180000EB800006EB40003038D2
:10054000C8F818002046E1688847064603F093FB88
:100550000028EED1012F0AD02E2E08D12046E168C6
:1005600088477F1C0646022F45F02005C4DBA069A2
:10057000002803DA404245F00105A061E80701D0F8
:1005800025F01005A6B1A6F14100192802D82036A1
:1005900045F400654A463146204625604D46FFF742
:1005A000DFFD60B1012807D0ED1D25F0070000E058
:1005B00007E000F1080978E705F1040975E730461E
:1005C0007AE7206ABDE8F09F3046000070B5064625
:1005D00000F03AF90468054630460A22002100F08E
:1005E00013FD2C6070BD30B505460B462A4613F846
:1005F000014B12F8010B08B1A042F8D01CB1002841
:1006000002D06D1CF1E7284630BD10B5431C02E056
:1006100010F8011B71B18107FAD14FF0013202C805
:100620008C1A8C4314EAC211F9D0C01A0A0603D0FE
:10063000C01E10BDC01A10BD0A0401D0801E10BD1E
:100640000902FCD0401E10BD40EA010370B59B07B3
:100650002ED14FF00136042A2AD308C810C99D1B99
:100660009D43121F15EAC61517D0D8B2E1B2401A41
:1006700050EA056110D198B2A1B2401A50EA054182
:100680000AD123F07F4024F07F41401A50EA05212F
:1006900002D1180EA0EB146070BDA342DBD018BAD3
:1006A00021BA884201D9012070BD4FF0FF3070BDE2
:1006B0000AB9002070BD10F8013B11F8014B63B17D
:1006C000A3420AD1521E08D010F8013B11F8014B89
:1006D0001BB1A34201D1521EEDD1181B70BD421EA9
:1006E00012F8013F002BFBD111F8013B002B02F85F
:1006F000013BF9D1704710B5203AC0F00B80B1E84A
:100700001850203AA0E81850B1E81850A0E8185046
:10071000BFF4F5AF5FEA027C24BFB1E81850A0E84F
:10072000185044BF18C918C0BDE810405FEA827C69
:1007300024BF51F8043B40F8043B08BF7047D20780
:1007400028BF31F8023B48BF11F8012B28BF20F821
:10075000023B48BF00F8012B70474FF0000200B584
:10076000134694469646203922BFA0E80C50A0E8D4
:100770000C50B1F12001BFF4F7AF090728BFA0E882
:100780000C5048BF0CC05DF804EB890028BF40F84E
:10079000042B08BF704748BF20F8022B11F0804F90
:1007A00018BF00F8012B70474FF0013C50F8042BA4
:1007B00051F8043B9A4221D1A2EB0C03934313EA74
:1007C000CC1317D150F8042B51F8043B9A4215D1A1
:1007D000A2EB0C03934313EACC130BD150F8042B78
:1007E00051F8043B9A4209D1A2EB0C03934313EA5C
:1007F000CC13DBD04FF00000704700BFD01A01BA15
:10080000B1FA81F101F0180122FA01F0CB40C1F1F7
:100810002001DBB2C0B2C01A2CFA01F3D11A914305
:1008200011EAC311E6D17047704770477047000066
:1008300010B500F025FC001D10BD00BF3D3E0000BE
:100840000048704794030020004870478C03002044
:10085000704770477047704738B504460A46002015
:100860006946AFF30080002808BF38BD02460099F2
:10087000204600F009FC012038BD012000F088BDB1
:10088000F8B5AFF30080054600200C46102000BFED
:100890000646A819A0420DD9324669460020AFF39A
:1008A0000080070008BF00F073FD0098A04218BF49
:1008B0000546C419FFF7C4FF05600746F01D20F088
:1008C00007004619284600F00AF8B44208BFF8BDF0
:1008D000A21B31463868BDE8F84000F0D5BB0021C6
:1008E0000160C0E901107047102070472DE9F04702
:1008F0000D4699469246044600F124080168880690
:1009000004D5E06921F01001216000E00120A84237
:1009100001DD471B00E00027A1697A1902EB0900FD
:10092000081AA0612078C00602D42046AFF30080E8
:10093000002608E0D4E901211AF806009047206A51
:10094000401C761C20624E45F4DB2078C0060AD598
:100950002046AFF3008006E0D4E901213020904723
:10096000206A401C2062381EA7F10107F4DC07E072
:10097000D4E9012118F805009047206A401C206244
:10098000281EA5F10105F3DC2046AFF30080207896
:10099000000602D50220BDE8F0870120FBE7000039
:1009A00001694A1C02610878704700B58FB0CDE933
:1009B00001310021059105497944CDE90310114623
:1009C0006846FFF767FD0FB000BD0000E5FFFFFFC1
:1009D0000A6802F8010B0A60704710B5436913B149
:1009E000AFF3008001E0FFF7EFFC012010BD1278AB
:1009F00000F124010A7000224A700122EDE711681B
:100A00004FF0FF32E9E70000074B70B50D467B441D
:100A1000FFF7CBFF0446284600F01AFC10B14FF058
:100A2000FF3070BD204670BD0D3400002DE9FF4F32
:100A300006468BB00878FF2806D0491C2D2805D023
:100A400000244FF0000908E000200CE00124F8E742
:100A500009EB8903491C00EB43090878FF28F7D10B
:100A600014B1C9F100008146107800252C46AA4631
:100A700029462D2801D02B2804D1521C2D2813D013
:100A8000002082468B461078FF280FD04FF0000CD4
:100A90000A21521CA5FB017804FB018105FB0C1106
:100AA000C5194BEB0104EEE70120EAE700210846F7
:100AB0004FF00000BAF1000F02D000EB80004008B8
:100AC000C0F38157012F01DD4FF0FF370E9955EA32
:100AD000040009EB01080BD04FF0020918F5FA7F6A
:100AE00016DA4FEACA70002F706008DD012007E0B7
:100AF0004FEACA70C6E900B00FB0BDE8F08F002021
:100B00003060FFF7A1FEC0F800901821084616E0FB
:100B1000B8F5FA7F18DD002F02DAF748784401E0D3
:100B2000F6487844D0E90010C6E9001040EACA70DF
:100B30007060FFF789FEC0F80090142108460FB0DE
:100B4000BDE8F04F03F03BBF002108464FF0000026
:100B5000B8F10001099002DAC7F1000200E03A465C
:100B600001DAC8F1000106A800F000FB06AB93E82B
:100B7000070003AB83E8070044F23E005BEA040190
:100B80000090584604D144F21E012C465D46009167
:100B9000210C0904014306D10099240444EA1544B8
:100BA0002D041039009104F07F41014306D10099D2
:100BB000240244EA15642D020839009104F07041C2
:100BC000014306D10099240144EA15742D01091F3F
:100BD000009104F04041014306D10099A40044EA89
:100BE0009574AD00891E009104F00041084304D1C2
:100BF00000986D196441401E00904FF001033A4681
:100C00006846B8F1000FCDE9014503A902DD01F006
:100C100040FC01E001F013FCBAF1000F04460D4660
:100C200001D084F00044002108464FF000000999EB
:100C300040F2FF77484010F00C0F07D124F000403D
:100C4000284303D0C4F30A50B84212D1FFF7FCFD89
:100C5000C0F80090C4F30A50B8420AD1A8487844BA
:100C6000D0E90010C6E9001004F0004108437060AC
:100C700042E7C6E900543FE72DE9FF4F1F464FF01A
:100C8000000A4FF0FF38454691B0D7E90146CDF84C
:100C90003CA000F0F5F9C0680168405C1090B969AB
:100CA00012986D1C8847396A814688470028F6D11A
:100CB000B9F1FF3F0AD0002E24F4D06411DDB9F160
:100CC0002B0F08D0B9F12D0F0BD102E0404615B023
:100CD00013E744F48064B96912986D1C8847761E46
:100CE0008146600504A901D52D2000E02B20002EAF
:100CF00001F1010B0DF130088DF810003FDDB9F165
:100D0000690F08D0B9F1490F05D0B9F16E0F02D0C3
:100D1000B9F14E0F1CD13B4601A8009580E8500266
:100D2000DDE912126FF0020003F0B0FEC11CCED15B
:100D30000EE0B96912986D1C884781461398761E9B
:100D400044F4007405600F98401C002E0F9016DDCF
:100D5000B9F1300FEDD0B9F1780F02D0B9F1580FD9
:100D60000DD10F9801280AD13B46CDE90054DDE9A9
:100D70001212001F029603F087FEC11CA7D1109922
:100D800089453ED144F0800406E01399681CAAF11D
:100D9000010A44F400740860B9696D1C1298761E4B
:100DA000884730288146F0D02BE01099894505D13D
:100DB000200603D4761E44F0800418E0484602F072
:100DC0005AFF08B3761E0DF123018B4544F40074DD
:100DD00008D2A9F130000BF8010B200607D5AAF1C3
:100DE000010003E0200602D40AF101008246A005BA
:100DF00002D51399681C0860B96912986D1C884760
:100E00008146002ED1DC53E0002E51DDB9F1650F93
:100E100002D0B9F1450F4BD1A00549D5B9696D1C78
:100E20001298761E24F440748847002E81460CDD0B
:100E30002B2804D0B9F12D0F07D144F48074B9697F
:100E400012986D1C8847761E8146E00501D52D213C
:100E500000E02B2108F8011BCDF8008021E0761E70
:100E60000DF13901884544F400740CD2A9F1300029
:100E700010F0FF0088F8000002D10099884509D9D8
:100E800008F1010806E0E00501D51E4801E042F244
:100E90000F708246B96912986D1C88478146139875
:100EA0000560002E04DD484602F0E5FE0028D6D19C
:100EB000F96912988847FF2053468BF8000088F89C
:100EC000000000200A900B9004AA0CA90AA8FFF7C2
:100ED000ADFDA00502D46FF00100F8E614F0240F78
:100EE00012D0E0071CD13868DDE90A12031D3B600F
:100EF0000068C0E9001213E0944000008640000042
:100F00004A3F0000F1D8FFFF0AA9684602F042FEFE
:100F1000E00705D13868009A011D39600068026059
:100F20002846D4E6426842B1016811F8013B23B17A
:100F3000521EC0E90012184670470121C160881E88
:100F4000704742685AB1C368016843B983688B42ED
:100F500005D0491E521CC0E90012002070474FF016
:100F6000FF3070470FB4002300B589B00CA9009181
:100F70000B99CB60214B7B440693214B7B44079319
:100F800004236FF00042CDE901321E4A7A446B46D9
:100F900008920246002003F075FD09B05DF814FBCD
:100FA00070B506464FF0FF3015460C46324686B007
:100FB0000091CDE9010169460020049004A8FFF7E3
:100FC000D1FF02460498211825B108B1084600E077
:100FD00020462860049800280DD0002A02DD0098E1
:100FE000884208D03246081B69460094CDE90104C6
:100FF00004A8FFF7B7FF06B070BD0000ABFFFFFF0E
:10100000C3FFFFFF2D0100002DE9F04791460F4679
:1010100080460446002614F8015B2DB1FFF708FC5A
:101020000068405DC007F6D12B2D02D02D2D18D0C1
:10103000641E4A463946204600F049F827B139680F
:10104000A14201D1C7F800804FF0020471050BD511
:101050004042002803DDFFF7F7FB0460A007BDE86E
:10106000F08746F48066E4E70028F8DAFFF7ECFB47
:1010700004606FF00040F2E7004870478C030020E6
:1010800000487047AC030020034640688C460028A7
:1010900018BF88423CBF03464068F8D3186818441C
:1010A000884207D00CF1030020F00700001D411A10
:1010B000521A0146081D0A60FFF7D3B810B504465E
:1010C000FFF7B6FB0068005D00F0010010BD2DE9E0
:1010D000F05F824615468B4600270AF10104B946A7
:1010E0000078302801D09DB113E014F8010B0127DE
:1010F000782803D0582801D045B10AE00DB1102D51
:1011000007D1002714F8010B102502E0082500E0A4
:101110000A250026B0460EE005FB080005FB06F197
:1011200001271FFA80F801EB1046B6F5803F00D387
:10113000B94614F8010B294600F095F90028EBDABE
:10114000BBF1000F05D00FB1641E00E05446CBF890
:101150000040B9F1000F06D0FFF776FB02210160D5
:10116000C81EBDE8F09F48EA0640FAE72DE9F047BF
:10117000814616468AB0354878440DC88DE80D0082
:1011800032487844801C03AC0DC884E80D0041F659
:101190009B300844372190FBF1F290FBF1F5A5F16B
:1011A000800501FB12041B3C02D56442012000E0D3
:1011B0000020DFF898A080460027FA44AAF1BE0A72
:1011C0000EE0E0070AD03246684607EB47010123EC
:1011D0000AEB810101F048F98DE8070064107F1CDB
:1011E000002CEED1194F7F44AE3F19E0E80715D02F
:1011F00007EB04100DF1180A90E80E008AE80E00C3
:10120000C068F04201D1981908903246012306A91E
:1012100003A801F029F903AB83E807006D10641CF3
:10122000002DE3D14FF0010332466946B8F1000FBB
:1012300003A802D001F0EEF801E001F015F9C9E9C8
:101240000001C9F808200AB0BDE8F087EC390000B9
:10125000007B00F08000704710B542485421FFF732
:101260007CFA41485421FFF778FA40485421FFF7AF
:1012700074FA3F493B483C4A3F4B08603D490A608D
:101280003A491960531C0365481C10650120086524
:101290003B48344A39A1784400F02CFC20B9384846
:1012A00078440A3800F0D0FC37482F4A35A17844FA
:1012B00000F020FC20B9344878440A3800F0C4FC1F
:1012C00032482A4A2FA1784400F014FC20B92F4854
:1012D00078440A3800F0B8FC40232248DC000021A2
:1012E000224600F0E4FB20B125487844543800F051
:1012F000ABFC1D4822464023002100F0D8FB20B162
:1013000021487844543800F09FFC184822461023A6
:10131000002100F0CCFB002806D01C487844BDE832
:101320001040563800F090BC10BD104870B5006DEC
:1013300020F001040B4800F053FC0B4800F050FC77
:101340000A4800F04DFC09E0206D20F00105204620
:1013500000F046FC2046FEF784FF2C46002CF3D11B
:1013600070BD000090020020E4020020380300203D
:101370004C000020500000205400002072000000AB
:10138000E638000077000000D2380000BE380000C8
:1013900010B500F061FCBDE8104000F050BC0EB587
:1013A000CDE90001FFF731F9029069460120ABBE9B
:1013B0000EBD08B5694600900220ABBE08BD1FB542
:1013C0008DE8070069460520ABBE04B010BD1FB50F
:1013D0008DE80F0069460620ABBEF6E708B5694602
:1013E00000900920ABBE08BD1CB5CDE900016946DF
:1013F0000A20ABBE1CBD704708B5694600900C20A2
:10140000ABBE08BD70477546FFF736FEAE46050019
:101410006946534620F00700854618B020B5FEF710
:10142000DFFEBDE820404FF000064FF000074FF010
:1014300000084FF0000B21F00701AC46ACE8C009F2
:10144000ACE8C009ACE8C009ACE8C0098D467047FB
:1014500010B5FFF7F9F9006810BD10B50446FFF7A5
:10146000F3F9046010BD3A2800D2303820F0200291
:10147000412A01D3A2F13700884201D34FF0FF3057
:10148000704700002DE9FF4F1F464FF03C0987B021
:101490004FF00042DDE9141001F10108DDF858A019
:1014A00002EA40500390002005908346054604461A
:1014B0000490B969461E08988847AAF1010A02906B
:1014C000BAF1000F3BDD02982E2815D01021FFF74E
:1014D000CAFF00282EDB4FF0010B0599014317D0FE
:1014E000B9F1000F0BDB4A46C11700F0E3FB0543DF
:1014F0000C43A9F1040905E0012004900BE008B1B8
:1015000045F0010501200590049820B9361D02E040
:10151000049800B1361FB969089808F10108884796
:10152000BBF1000FAAF1010A0290C9D00999C1F8D4
:101530000080C5E70298702808D0502806D0F969C5
:1015400008988847BBF1000F14D04FE000200290AC
:101550000120BBF1000F049009D0B969089808F187
:1015600001088847AAF10109B9F1000F07DCF96900
:10157000089888476FF001000BB0BDE8F08F2B286A
:1015800004D02D280CD14FF0FF300490B969089891
:1015900008F101088847A9F10109B9F1000FE6DD5A
:1015A000411CE4D00A21FFF75EFF0028DFDB02992F
:1015B00008F1010801EB810100EB41000290B969DB
:1015C000089888470A21FFF74EFF099AA9F10109F7
:1015D000B9F1000FC2F8008001DD0028E7DAF969EF
:1015E000089888470499029800FB016655EA0400B0
:1015F00004D004F04041090002D006E0039898E0CE
:10160000A40044EA9574AD00B61E04F00041080041
:1016100002D16D196441761E159810F0240F03D085
:101620004FF00B095C4803E04FF028096FF07D0094
:101630008246564507DAAAEB06018944B9F1410F03
:1016400001DD4FF0410901200021A9F1010200F064
:1016500031FB024628400B462140084301D00121BE
:1016600000E00021501E029143F1FF31284021404B
:10167000084301D0012000E000200299834651EA8E
:101680000B014FD0002108464FF00000039900F4F1
:10169000400039B100EB80004FF4400100EBD07006
:1016A00001EA60008015012802DD4FF0FF3000E004
:1016B00013D0401C36D0029860B3BBF1000F0CD1A0
:1016C0004A460120002100F0F5FA28402140084355
:1016D00001D0012000E00020E0B101204A460021B5
:1016E00000F0E8FA034640190A4661412D1A8C4180
:1016F00011D3B9F1400F09DD159810F0240F02D075
:10170000AAF1340603E0AAF1170600E0761C0025D2
:101710004FF0004406E05B1E42F1FF3220EA030571
:1017200021EA0204CAF10100B04206DA1B4903981B
:1017300008430190002000900EE0039AC4F3D321E7
:10174000E80A0A43164940EA44500A433146CDE9C3
:101750000002684602F084FA159810F0240F0BD0AE
:101760001598C00715D13868DDE90012031D3B60EC
:101770000068C0E900120CE002A8694602F00AFA0B
:101780001598C00705D13868029A011D39600068B4
:1017900002604046F0E6000002FCFFFF0000F07F20
:1017A0000000F03F2DE9FF4F92461D4685B04FF0F7
:1017B0000041DDE9124BDDE914727F1E01EA4B5056
:1017C000414940F0FF4940EA0108002122F0200091
:1017D0004928049102D04E2828D04CE03BA0012695
:1017E00007C88DE80700A9690698641C88477F1E12
:1017F000014606D41DF8060018B121F020018142EF
:101800000BD0E96906988847032E34D0082E32D0D1
:101810006FF0010009B0BDE8F08F761C032E01D0F7
:10182000082EE0D1601CCAF80000DCE7A969069820
:10183000641C88477F1E2AD420F02000412826D12E
:10184000A9690698641C88477F1E20D420F02000D8
:101850004E281CD1A9690698641C88477F1E48F44D
:10186000002849F48009CAF8004001D4282806D08D
:10187000E969069888475FEACB7012D022E0A9692F
:101880000698641C88477F1E01D4002803DAE969A2
:1018900006988847BCE72928F1D1641CCAF80040A3
:1018A000E9E71BF0240F07D028680499031D2B607B
:1018B0000068C0E9001805E02868021D2A60006879
:1018C000C0F800902046A5E70000F07F494E464949
:1018D0004E495459000000002DE9F04705460C46DA
:1018E000C86820F4201040F48000C860800602D54B
:1018F000084600F0C6FAE06841F282014FF0FF3975
:101900000140022903D0204600F064FAB5E000F45B
:101910002041B1F5004F0FD1C00306D56168E06AE0
:10192000884200D80846606006E02069E062606096
:101930006069FFF761FDA061A0680022EEB2002897
:101940000DDAE1688B050AD4C043A06041F4903001
:101950002260E0606068411C61600670A5E0E0689C
:101960009046226040F40050E060206968BB6069E6
:10197000FFF734FD012704F12405A0B1A08910F47C
:10198000407F08D0E069FEF73DFC206118B1E068B7
:1019900040F4006016E0E7612561E06820F44070E3
:1019A00040F480600EE0E069FEF72CFC0028206126
:1019B000F1D0E06840F4006010F4407FE06002D1B4
:1019C00040F48070E06020696060E06825696FF035
:1019D000010AC1051FD56168E06A884200D808463F
:1019E000411B04D02246284600F0FEF9F0BBE06817
:1019F000010203D5E562C4E9015854E0691CE162C3
:101A00006160E16940F48030491EC4E9021030464B
:101A10002E70BDE8F087010202D500F480320AE0A2
:101A20006068411C61600670E0680A2E40F48030F6
:101A3000E06006D00022E16A6068814203D90B466B
:101A400002E00122F7E70346A7895B1B7F0503D469
:101A5000E7699F4200DDE2B1814200D80146E562BC
:101A60000F1AC4E90158002B09DD00E005E0224609
:101A70001946284600F0B8F908B14846C9E747B109
:101A8000A069E5626560C01BA061E06840F01000DD
:101A9000E060E068000208D56168A069E562491B62
:101AA00008446560A0615046B3E73046B1E770B5C1
:101AB000C468A50713D0650211D4B2F5807F09D0A0
:101AC000B2F5007F06D0B2F5806F08D1012300F196
:101AD000240106E05D1E6FF07F46B54201D3012070
:101AE00070BD0161C361416024F470611143C16044
:101AF000002070BD2DE9F0410C4607461646104601
:101B000000F06EF82078611C61280AD0722802D09B
:101B100077283CD102E00125002405E002250424B9
:101B200002E0082448F2020511F8010B2B2806D028
:101B3000622809D011F8010C74280AD00BE045F096
:101B4000030544F00204EFE745F0040544F0010406
:101B5000EAE744F0100438462146FFF720FC411C18
:101B600015D00021316171604FF40071F560F161B1
:101B70007061200704D530460222002100F0AEF843
:101B8000306D40F0010030653046BDE8F081002046
:101B9000FBE72DE9F0410D460646104C206DC107CC
:101BA00004D0410804D020F00104F7E722460EE0FB
:101BB0005420FEF727FB07000ED0206D47F00101EF
:101BC0000843542120653846FEF7C7FD3A462946AA
:101BD0003046BDE8F0418DE70020D6E790020020B6
:101BE0002DE9F04704464FF000094FF0FF37C56874
:101BF000D4E90486A80707D0204600F01FF9304634
:101C0000FFF7D7FB002802DA3846BDE8F087280541
:101C100002D54046FEF725FB4C212046FEF79DFDF0
:101C2000206D20F0010020654846EEE710B504461F
:101C3000AFF300802046BDE81040FEF7BCBA002894
:101C400001D000F031B8704710B500F055F9BDE88B
:101C50001040FFF7F4BF000010B5012805D00021A7
:101C600003A000F02FF9012010BD09A1F8E7000042
:101C700053494752544D454D3A204F7574206F6675
:101C80002068656170206D656D6F727900000000DD
:101C90003A2048656170206D656D6F727920636FC1
:101CA000727275707465640001491820ABBEFEE75E
:101CB00026000200B2F120030AD5C2F1200301FA86
:101CC00002F120FA03F300FA02F041EA030170473F
:101CD00000FA03F14FF00000704700002DE9F041D9
:101CE000044616460D464769007B80072ED03846CD
:101CF000FFF774FB50BB3EB3012E02D0022E25D15C
:101D000004E0204600F019F905441DE03846FFF7CD
:101D100073FBE168002841F01001E16005DA20461C
:101D200000F058F80120BDE8F081C9030BD56268C6
:101D3000E16A914200D81146A26911442269891AC8
:101D4000814200DD08460544002D01DA0220EAE761
:101D5000E16A6068E268814206D29103E06203D5DD
:101D600022F4003141F01002A6690027AE4213DCD4
:101D7000E16A814201D90B4600E0034603EB060C01
:101D80002369ACEB030CAC4506DD814201D98C46DE
:101D900000E084469C4505D1A760276042F0200002
:101DA000A5620DE0AD1BE669AE1B8142A66000D9BD
:101DB0000846C01A281A20605819606022F02000D6
:101DC00003490840E060002084F84870ABE7000059
:101DD000BFCFD7FFC16821F4001141F08001C1607D
:101DE00000218160016070472DE9F047814614466B
:101DF0000E464FF0FF383248D5685769054209D082
:101E00003846A169FFF7F0FA002811DB2C48C043DF
:101E10000540E5602B46324649463846FFF7CFFA83
:101E2000A16920F00042B21A11440028A16103D038
:101E30002046FFF7CFFF4046BDE8F08770B5044667
:101E40000569C06A6168884200D80846E16821F4E3
:101E50002011E160C90312D5A84208D02246411BD7
:101E60002846FFF7C1FF10B14FF0FF3070BD0020D2
:101E7000E562C4E90150E06820F48030E0600020B1
:101E800070BD10B50446C06820F02000E060A16A73
:101E9000A06988420DD02046FFF7D0FFE06820F40B
:101EA000405040F01000E060A06AA0612069E0624C
:101EB000606044F24001E0688843E06010BD0000CB
:101EC0001000020070B505460C460A2000E06D1CAB
:101ED00000F02CF835B128780028F8D102E0641C15
:101EE00000F024F814B120780028F8D1BDE8704043
:101EF0000A2000F01BB8000010B5014602A0FFF751
:101F0000E1FF012010BD000053494752545245449F
:101F10003A2052656469726563743A2063616E2782
:101F200074206F70656E3A200000000008B56946A5
:101F30008DF800000320ABBE08BD10B50146C26895
:101F4000900703D0900607D5886A0AE0FEF77CFC6C
:101F500001210160881E10BD8B69486818440B6917
:101F6000C01A91F848301BB191F84910401A10BDC1
:101F70001103FCD50028FADD401E10BD20F07F4C77
:101F800080EA030023F07F47ACEB070303F57C53A3
:101F900000F0004003F1FF032DE980494FEA154BA3
:101FA00009B44FEA144325EA0B4E24EA03480FF222
:101FB000042606EB132749083E785FEA320203FB4A
:101FC0000667C7F5000707FB06F64FEA54374FEAE6
:101FD000D64606F1020607FB066CCCF1005C4FEA20
:101FE0001C472CEA074C07FB06F40CFB06F504EB38
:101FF00015464FEA961634BF00204FF000404FEAD6
:10200000D13706FB07FC4FEA1C4C0CFB0BF7D21B2D
:1020100003FB0CF761EB07010CFB0EF7B0EB07407D
:1020200072EB17420CFB08F734BFA2EB0742B2EB8E
:10203000074261EB17414FEA0C444FEA910706FB58
:1020400007FC4FEA1C4C0CFB0BF7B0EBC74072EBE4
:10205000573203FB0CF734BFA2EBC742B2EBC742C7
:1020600061EB57310CFB0EF7B0EBC70072EB577208
:102070000CFB08F734BFA2EBC702B2EBC70261EB5F
:102080005771039F4FEA816141EA921104EBCC043E
:102090004FEAD1374FEA826206FB07FC42EA901210
:1020A0004FEA80604FEA1C4C0CFB0BF7D21B03FB82
:1020B0000CF761EB07010CFB0EF7B0EB074072EB7E
:1020C00017420CFB08F734BFA2EB0742B2EB074202
:1020D00061EB17414FEA8C554FEA910704EB9C24C2
:1020E00006FB07FC4FEA1C4C0CFB0BF7B0EBC740A0
:1020F00072EB573203FB0CF734BFA2EBC742B2EBD3
:10210000C74261EB57310CFB0EF7B0EBC70072EB27
:1021100057720CFB08F734BFA2EBC702B2EBC70241
:1021200061EB577115EB4C254FEA816141EA921141
:102130004FEA82624FEAD13742EA901206FB07FC6F
:1021400044F100044FEA80604FEA1C4C0CFB0BF793
:10215000D21B03FB0CF761EB07010CFB0EF7B0EB96
:10216000074072EB17420CFB08F734BFA2EB0742A3
:10217000B2EB074261EB174115EB1C154FEA8131B9
:1021800041EA92414FEA823242EA90424FEA80307D
:102190004FEA0C7644F1000448EA03434EEA0B4848
:1021A0004FF0000EB2EB080C71EB030724BF624640
:1021B00039464EEB0E0E4FF0000B001852414941CC
:1021C0004BEB0B0BB2EB080C71EB03077BF1000B35
:1021D00024BF624639464EEB0E0E4FF0000B00183E
:1021E000524149414BEB0B0BB2EB080C71EB03076F
:1021F0007BF1000B24BF624639464EEB0E0E51EACE
:10220000020718BF46F0010616EB0E7655F10002E4
:1022100054F1000103D5BDE88901BDE80088BDE89F
:102220008901BDE80048B619524141EB0101A3F113
:102230000103704780807F7E7D7C7B7A797877761A
:1022400076757473727171706F6E6E6D6C6C6B6A93
:102250006A69686867666665646463636261616031
:10226000605F5F5E5E5D5D5C5C5B5B5A5A595958AE
:102270005857575656555555545453535252525118
:10228000515050504F4F4F4E4E4D4D4D4C4C4C4B6E
:102290004B4B4A4A4A4949494848484747474746B5
:1022A00046464545454444444443434343424242F1
:1022B0004241414146EA0646A3F570534FEA1646AD
:1022C00046EA42564FEAD22242EA415210B54FEA5C
:1022D000D121A3F1010300F02FF820F0004000F11C
:1022E000020C00F0004701EB00501146BCF5006FF6
:1022F00040EA070000D210BDBAF1000F0AD01CB5A9
:1023000003B44FF004004FF004014FF000000FBC85
:10231000BDE810404FF00001BBF1010FB9BF044808
:102320004FF0FF310348002140EA070010BD00BF15
:10233000FFFFEF7F0000F07F002B9C4630D477003A
:102340002BD01CB54FEA370703B44FF010004FF005
:102350001001BAF1000F06D0BCF1000FDCBF40F055
:10236000080040F008014FF000000FBCBDE810402D
:102370000BF1010BBBF1010F08BF5FEA170722BF8A
:1023800012F1010211F101014FF0004143F100038C
:1023900000F0004043EA00007047F9D35708D0E747
:1023A00046EA064613F1400F4FEA16461FDD13F1C9
:1023B000200FDFBF16430A46002120335B42BED008
:1023C000C3F1200746EA064602FA07F74FEA164627
:1023D00046EA0706C3F1200722FA03F201FA07F7DB
:1023E00021FA03F14FF0000342EA0702A7E746EAA9
:1023F000020646EA06464FEA164646EA0106BCBF12
:1024000046EA0646360C4FF000034FF000024FF04C
:10241000000194E72DE9804C9A46934670B491E808
:10242000380007C831EA400C48BF34EA430C03D5F2
:10243000FFF7A4FDFFF780FFF0BCBDE8008C2DE99D
:10244000804C9A46934670B491E8380007C831EA48
:10245000400C48BF34EA430C03D5FFF78FFDFFF76C
:1024600029FFF0BCBDE8008C2DE9804C9A469346CC
:1024700070B491E8380007C810F0804F08BF13F01F
:10248000804F03D100F01AF8FFF756FFF0BCBDE80B
:10249000008C2DE9804C9A46934670B491E8380040
:1024A00007C810F0804F08BF13F0804F03D100F031
:1024B00005F8FFF7FFFEF0BCBDE8008C20F07F4779
:1024C00080EA030023F07F4C07EB0C03A3F57C5359
:1024D00000F00040A3F1FE0392F0000F00F0B38083
:1024E00095F0000F00F077802DE901494FEA114087
:1024F0004FEA144621EA004800FB06FC24EA06479E
:1025000008FB06F607FB08F800FB07F718EB064880
:102510004CEB164C4FEA124B18EB07484FEA1546A6
:102520004CEB174022EA0B4E0BFB06FC25EA064754
:102530000EFB06F607FB0EFE0BFB07F71EEB064E27
:102540004CEB164C4FF000061EEB074E4CEB174BB6
:1025500018EB0B0840F1000018EB0E0B58EB0008CD
:1025600040F100008F1A4FF000013CBFC943661BC9
:1025700014BFB5EB040C00213CBFC943F61B4FEA66
:1025800017444EEA8E0E27EA04454FEA1C4704FB27
:1025900007622CEA074C05FB07F70CFB05F604FB6A
:1025A0000CFC16EB074642EB174216EB0C4642EBCF
:1025B0001C421BEB060658EB0202414146EA9E060E
:1025C00001D5BDE80189B619524141EB0101A3F1E2
:1025D0000103BDE801894FEA14454FEA114724EA97
:1025E000054621EA074C05FB07F406FB07F70CFB41
:1025F00006F105FB0CFC11EB074144EB17444FEAD5
:10260000124711EB0C4144EB1C4422EA074C05FB3A
:1026100007F206FB07F70CFB06F605FB0CFC16EBB6
:10262000074642EB174216EB0C4642EB1C456A1874
:1026300054F1000148BF7047B619524141EB010106
:10264000A3F10103704795F0000F37D04FEA114214
:102650004FEA144721EA024624EA074C02FB07F13D
:1026600006FB07F70CFB06F402FB0CFC14EB07441B
:1026700041EB17414FEA154714EB0C4441EB1C4169
:1026800025EA074C02FB07F506FB07F70CFB06F6ED
:1026900002FB0CFC16EB074645EB174516EB0C4608
:1026A00045EB1C42121951F1000148BF7047B619A1
:1026B000524141EB0101A3F1010370474FEA144578
:1026C0004FEA114724EA054621EA074C05FB07F1CA
:1026D00006FB07F70CFB06F24FF0000605FB0CFCAF
:1026E00012EB074241EB174112EB0C4251EB1C413C
:1026F00048BF7047921841EB0101A3F101037047F5
:10270000FEE7000070B5074D002407492046EC6045
:102710000C54401CC828FBDB00F028FAC5E908046B
:1027200070BD000000000020C801002070470000BC
:102730000C49CA68D207FCD10A6942F002020A6158
:102740004861086940F040000861C868C007FCD1D2
:10275000086920F001000861086920F002000861A2
:1027600070470000002002402DE9F05F4FF0E029A3
:102770008B46D9F810101446054621F00201C9F81D
:102780001010DFF85480DFF854A098F80070DAF8E1
:10279000006000F0D9F80020014602E02954401CF6
:1027A00080B2A042FAD3002005E000BF1BF8101051
:1027B0002954401C80B2A042F8D300F0BBF888F83E
:1027C0000070CAF80060D9F8101041F00201C9F891
:1027D0001010BDE8F09F00003C00002044000020E5
:1027E00070B515460C46064600F0AEF82046FFF7D9
:1027F0009FFF0E4B186940F001001861002007E0B0
:10280000D968C907FCD1315C24F81010401C80B293
:10281000A842F5D3D868C007FCD1186920F00100A0
:102820001861BDE8704000F085B80000002002404B
:1028300010B590F821100022022905D004218163EF
:1028400080F82020012010BD01680B6823F00E03E2
:102850000B6001680B6823F001030B6090F84030B7
:10286000C46B012101FA03F3636080F8211080F842
:102870002020104610BD000010B590F82110002453
:10288000022903D00421816301243DE001680A6824
:1028900022F00E020A6001680A6822F001020A6052
:1028A0001A4A0168914201D1012121E0174A1432EC
:1028B000914201D110211BE0144A2832914201D1EA
:1028C000891515E0114A3C32914201D189140FE07B
:1028D0000E4A5032914202D14FF4803108E00B4A47
:1028E0006432914202D14FF4801101E04FF08071C7
:1028F000064A083A5160012180F82110002180F831
:102900002010416B01B18847204610BD08000240ED
:1029100070B5044600F02AF90546601C02D0044850
:102920000078044400F022F9401BA042FAD370BDA5
:102930003C0000200348016941F080010161002052
:102940007047000000200240064900200A69120674
:1029500007D5054A4A60054A4A600969090600D553
:10296000012070470020024023016745AB89EFCD6D
:102970002DE9F84FDFF8B891002409F1040A0AF1B3
:10298000040B23460F270BF1040EC9E00125A540D7
:102990002A40AA427DD1674ED1F804C0ACEB0608AC
:1029A000B44532D014DCBCF1030F3AD009DCBCF1E1
:1029B000000F2AD0BCF1010F1CD0BCF1020F31D1A5
:1029C0001DE0BCF1110F17D0BCF1120F2AD119E094
:1029D000B8F5881F19D006DCB8F5803F15D0B8F5DA
:1029E000801F1FD111E0B8F5001F0ED0B8F5041FED
:1029F00018D10AE0CB6815E0CB681B1D12E0CB684C
:102A000008330FE0CB680C330CE08B682BB1012B43
:102A10004FF0080303D0456104E0042302E00561A0
:102A200000E00023FF2A01D8064601E000F1040679
:102A30004FEA840501D9A5F12005D6F8008007FAF0
:102A400005FC28EA0C0803FA05F548EA0508C6F86B
:102A500000804D68ED0062D5374DAE6946F0010645
:102A6000AE61AD6924F0030605F001050095334D14
:102A700006EB050CDCF80850A607360F07FA06F837
:102A800025EA0805DFF8B880404503D14FF000087B
:102A900017E044E0DFF8AC80404502D14FF0010878
:102AA0000FE0DFF8A480404502D14FF0020808E0B3
:102AB000DFF89880404502D14FF0030801E04FF065
:102AC000040808FA06F848EA0508CCF808804D68BA
:102AD000D9F80060ED034D4601D5164300E096435A
:102AE0002E604D68DAF80060AD03554601D51643F7
:102AF00000E096432E604D68DBF80060ED025D4615
:102B000001D5164300E096432E604D68DEF8006064
:102B1000AD02754601D5164300E096432E60641C55
:102B20000D682A46E5407FF431AFBDE8F88F00001C
:102B3000000401400000111000100240000001409C
:102B400000080140000C0140001001400014014049
:102B5000C26821EA02030A4043EA02410161704768
:102B60000AB1016170470904FBE700000148806871
:102B7000704700003C000020024881680278114440
:102B8000816070473C000020074810B5016841F0A3
:102B900010010160032000F075F80F2000F006F826
:102BA00000F024F8002010BD0020024070B50D4D4B
:102BB00004464FF47A712878B1FBF0F00A490968AD
:102BC000B1FBF0F000F0ECFA48B9102C07D200226B
:102BD0002146501E00F036F800206C6070BD0120C8
:102BE00070BD00003C000020480000200C4808B5E3
:102BF000816941F001018161816901F00101009168
:102C0000C16941F08051C161C06900F080500090FD
:102C10000448416821F0E06141F00071416008BD65
:102C20000010024000000140002809DB00F01F02F4
:102C3000012191404009800000F1E020C0F800111E
:102C400070470000F0B40E4B1B680C46C3F3022320
:102C5000C3F10705042D00D90425191D072901D248
:102C6000002300E0DB1E012606FA05F1491E214083
:102C700099409E40761E16403143F0BC00F06ABF7A
:102C80000CED00E0064900F0070208684FF6FF036C
:102C9000184040EA0220034A1043086070470000D1
:102CA0000CED00E00000FA052DE9F0470F460500A5
:102CB00061D0434E306800F00700B84209D2306856
:102CC00020F0070038433060306800F00700B84259
:102CD00051D128683B4C810712D5400703D5606865
:102CE00040F4E06060602878000703D5606840F435
:102CF000605060606068A96820F0F0000843606080
:102D00002878C00728D06868012810D021680228D8
:102D100010D0890700292EDA616821F003010143F0
:102D20006160FFF723FF804641F288390DE021689A
:102D30008903EFE78901EDE7FFF718FFA0EB080132
:102D4000494502D90320BDE8F0876068696800F052
:102D50000C00B0EB810FEFD1306800F00700B842F3
:102D60000BD9306820F0070038433060306800F03D
:102D70000700B84201D00120E5E72878400705D5D3
:102D80006068E96820F4E060084360602878000724
:102D900006D56068296920F4605040EAC10060608F
:102DA00000F038F86168084AC1F30311515CC8406B
:102DB0000649086006480068FFF7F8FE0020C2E7F1
:102DC0000020024000100240C04A000848000020D5
:102DD000400000200448054900684968044AC1F3DE
:102DE0000221515CC840704748000020001002409A
:102DF000D04A00080448054900684968044AC1F3FC
:102E0000C221515CC84070474800002000100240B9
:102E1000D04A000812A185B00FC98DE80F0014A098
:102E2000144A006804905168134801F00C03042B05
:102E300010D0082B0ED1C1F38343C9031DF8030042
:102E40000AD5516804AAC1F34041515C0A4A504373
:102E5000B0FBF1F005B0704708494843FAE70000BD
:102E600002030405060708090A0B0C0D0E0F1010CB
:102E7000010200000010024000127A0000093D002B
:102E80002DE9F84F040070D02078C04DC00749D01C
:102E90006868C0F38100012807D06868C0F381002A
:102EA000022809D16868C00306D52868800339D58F
:102EB00060680028E7D035E06068B0F5803F0BD04F
:102EC00010B1B0F5A02F11D0286820F48030286010
:102ED000286820F4802002E0286840F480302860D0
:102EE000606890B1FFF742FE06460AE0286840F4A9
:102EF00080202860F0E700BFFFF738FE801B6428C1
:102F000073D828688003F7D50CE0FFF72FFE06463C
:102F100005E000BFFFF72AFE801B6428F0D8286870
:102F20008003F7D420789A4E80074FF001094FF0C4
:102F3000000839D5686810F00C0F07D06868C0F336
:102F40008100022809D16868C00306D42868800778
:102F500014D52069012808D110E02069B0B1C6F865
:102F60000090FFF703FE074605E00AE1FFF7FEFDCC
:102F7000C01B0228C4D828688007F7D52868616973
:102F800020F0F80040EAC10028600DE0C6F800809B
:102F9000FFF7ECFD074604E0FFF7E8FDC01B022841
:102FA00023D828688007F7D4207800072CD57948E3
:102FB000A169D9B1C0F80090FFF7D8FD074604E039
:102FC000FFF7D4FDC01B02280FD8686A8007F7D529
:102FD00071484FF4FA510068B0FBF1F0009000BF67
:102FE0000098411E0091FAD20EE080E0C0F8008007
:102FF000FFF7BCFD074604E0FFF7B8FDC01B022841
:1030000075D8686A8007F7D42078400760D5E869EA
:103010000027C00008D4E86940F08050E861E86902
:10302000012700F0805000905C480168C90513D466
:103030000168834641F480710160FFF797FD824685
:1030400006E000BFFFF792FDA0EB0A0064284ED80F
:10305000DBF80000C005F5D5E06801280AD008B10A
:10306000052813D0286A20F001002862286A20F081
:10307000040002E0286A40F001002862E06841F2A2
:10308000883B98B1FFF772FD82460BE0286A40F05A
:1030900004002862EEE700BFFFF768FDA0EB0A011D
:1030A00059455AD8286A8007F6D50CE0FFF75EFD2F
:1030B000824605E0FFF75AFDA0EB0A0159454CD8BE
:1030C000286A8007F6D41FB1E86920F08050E861D3
:1030D000E06988B36968C1F38101022944D00228FC
:1030E000C6F8608004D0FFF741FD044638E034E0C4
:1030F000FFF73CFD074604E0FFF738FDC01B022840
:103100002BD828688001F7D4206AB0F5803F05D11C
:103110006868A16820F4003008436860D4E90801B9
:103120000843696821F4741108436860C6F8609028
:10313000FFF71CFD044606E025E000BFFFF716FD83
:10314000001B022809D828688001F7D51BE000BFC2
:10315000FFF70CFD001B022802D90320BDE8F88F01
:1031600028688001F4D40EE00128F7D06868226A4C
:1031700000F48031914204D1616A00F470108842F9
:1031800001D00120EAE70020E8E70000001002403B
:10319000000042428004424248000020007000408B
:1031A00010B5401EB0F1807F01D3012010BD4FF05B
:1031B000E02460610F21601700F0CCFC0020A061CA
:1031C00007202061002010BD70477047F8B50268E5
:1031D00004461068D168536910F00F0F4FF00005D6
:1031E00053D003F0010601F4907737435FD0C20754
:1031F00005D0CA0503D5226C42F0010222644207C1
:1032000005D5DA0703D0226C42F00202226482075D
:1032100005D5DA0703D0226C42F0040222640207CB
:1032200007D501F02002324303D0226C42F008029D
:103230002264226C002A34D0800604D5880602D588
:10324000204600F0E7FA20684069216CC0F3801046
:10325000090700D430B3204600F0C4FA2068416961
:1032600049061BD5416921F040014161A06BA8B11D
:1032700058494163A06BFFF7FFFA002811D0A06BFB
:10328000416B01B0BDE8F040084783060FD58B06BF
:103290000DD52046BDE8F84000F0BCBA2046FFF747
:1032A00094FFF8BD2046FFF790FF2564F8BD266B1C
:1032B0002023012E52D1C60650D5CE064ED5106819
:1032C00050680090506940062AD5A16B0868406894
:1032D0000004000CEAD0A68D8642E7D9E085886913
:1032E000202818D0D06820F48070D0602068416910
:1032F00021F0010141612068416921F040014161F3
:1033000084F83E3025632068C16821F01001C16057
:10331000A06BFFF78DFAA08DE18D401A81B219E004
:10332000A08DE18D401A81B2E08D0028BED0002929
:10333000BCD0D06820F49070D0602068426922F040
:103340000102426184F83E3025632068C26822F0A1
:103350001002C2602046FFF737FFF8BD05062BD5E7
:103360000D0629D594F83D002128F6D1A068B0F5C6
:10337000805F01D12069B0B1206A411C21622168BF
:1033800000784860E08C401E0004000CE084E4D12A
:103390002068C16821F08001C1602068C16841F0E7
:1033A0004001C160F8BD206A0088C0F30800506089
:1033B000206A801C2062E5E74006F3D54806F1D577
:1033C000D168204621F04001D16084F83D3000F002
:1033D00000F9F8BDD537000870B5040004D094F8A2
:1033E0003D00002510B106E0012070BD84F83C507E
:1033F000204600F023F8242084F83D002068C168AE
:1034000021F40051C160204600F060FA2068016993
:1034100021F4904101612068416921F02A01416154
:103420002068C16841F40051C1602564202084F8FF
:103430003D0084F83E00002070BD000030B585B02E
:10344000002400940194029403940068184988426F
:103450002BD11848C16941F40031C161C16901F43F
:1034600000310491816941F0040181618069124D4C
:1034700000F004000490042000900220019003203A
:10348000039069462846FFF773FA0820CDE9000447
:10349000694628460294FFF76BFA0022114626205F
:1034A000FFF7D0FB2620FFF7BFFB05B030BD0000C3
:1034B00000440040001002400008014090F83E30F7
:1034C000202B0ED159B152B190F83C30012B08D0CD
:1034D000012380F83C300023036300F053BA01203D
:1034E000704702207047000010B500680949884203
:1034F0000FD1FFF73BFB084A0021C2E9080100F0A9
:10350000C3F805490122BDE81040491C0348FFF7F4
:10351000D5BF10BD0044004000000020580000202E
:103520002DE9F843044690F83D001F4616460D4627
:1035300020284CD1C5B1BEB194F83C00012846D03A
:10354000012084F83C004FF00008C4F8408021209E
:1035500084F83D00FFF70AFBA6848146E684A06854
:10356000B0F5805F03D004E00120BDE8F883206956
:1035700028B12E465FF0000584F83C800EE000265E
:10358000FAE78021204600F018FAA0B9AEB116F88B
:10359000010B21684860E08C401EE084E08C4B46C3
:1035A0004FF0000200970028EBD14FF04001204679
:1035B00000F003FA30B10320D7E735F8020BC0F36F
:1035C0000800E6E7202084F83D000020CDE7022037
:1035D000CBE77047FEE700002DE9F04186B00024FC
:1035E00024480094019402940394816941F01001ED
:1035F0008161816901F010010491816941F020012C
:103600008161816901F020010491816941F0040127
:1036100081618069184F00F004004FF40055049058
:10362000002229463846FFF79BFADFF85080002237
:1036300002214046FFF794FA0126CDE90056022503
:1036400069463846CDE90245FFF792F9CDE90056C3
:1036500069464046CDE90245FFF78AF91020CDE9D9
:103660000004694640460294FFF782F906B0BDE8BF
:10367000F0810000001002400010014000080140ED
:10368000FEE7FEE770470000084810B542780A2AB6
:1036900005D0074BC1685A54491CC16010BD04488D
:1036A00000F0C6F9BDE81040FFF72CB8000000207C
:1036B000C80100207047000070B504461E48002273
:1036C000134600F1640600F1C8058354B354AB54AB
:1036D000521C642AF9DB0A4618A11748FCF75EFE63
:1036E0001548224615A16430FCF758FE124814A173
:1036F000C830FCF7F4FF1049643101F16400FCF7B5
:10370000EEFF0D4813A1C830FCF7E9FF0A4812A1EB
:10371000C830FCF7E4FF084901F1C800FCF7DFFFFF
:10372000054811A1C830FCF7DAFFBDE87040024936
:103730000EA0C831FCF726BE9C00002025640000C6
:103740007B227472616E677468616964656E223A87
:1037500022000000222C00002274686F6E67736FD5
:1037600064656E223A220000227D000025730A0063
:10377000FFF702BA30B58FB028216846FCF7EDFF9D
:1037800014210AA8FCF7E9FF01210804CDE9001083
:103790000024029402250491CDE907504FF4E01073
:1037A00009906846FFF76CFB08B172B6FEE70F2080
:1037B000CDE90A054FF48060CDE90C4002210AA84A
:1037C0000E94FFF771FA002801D072B6FEE70FB031
:1037D00030BD704710B5406A0021C185C184FFF734
:1037E000F4FC10BD0168CA6822F49072CA600168D6
:1037F0004A6922F001024A61016B012904D1016882
:10380000CA6822F01002CA60202180F83E10002110
:103810000163704708B590F83E10222901D00220BC
:1038200008BD82684FF480539A4201D1016921B1E9
:10383000816A9A421BD04AB10AE00268816A5268E2
:10384000C2F308020A80816A891C08E0026972B129
:103850000268526802F07F020A70816A491C816224
:10386000C18D491E0904090CC18503D019E0026805
:103870005268F1E70168CA6822F02002CA60016854
:10388000CA6822F48072CA6001684A6922F00102A3
:103890004A61202180F83E10016B012903D0FFF717
:1038A00023FE002008BD002101630168CA6822F0E0
:1038B0001002CA6001680A68D20602D50A6849681F
:1038C0000091818DFFF780FCEBE7000070B50446A6
:1038D00000680169E26821F44051114301612169E6
:1038E000A0680843616908432168CA6841F20C6313
:1038F0009A430243CA6020684169A26921F4407179
:10390000114341611E492068884202D1FFF772FAD3
:1039100001E0FFF75FFA00EBC00101EB0012606805
:1039200064218000B2FBF0F3B3FBF1F36FF01806F3
:103930007343B2FBF0F5B2FBF0F605EB83053223DF
:1039400003EB0515B5FBF1F5B6FBF1F605F0F00557
:1039500005EB0615B2FBF0F6B2FBF0F0B0FBF1F0B0
:103960006FF01802504306EB800003EB0010B0FB31
:10397000F1F0216800F00F002844886070BD00005D
:103980000038014081628285C285002101642222C3
:1039900080F83E2080F83C100168CA6842F48072CA
:1039A000CA6001684A6942F001024A610068C16860
:1039B00041F02001C160002070472DE9F041984698
:1039C00017460E460446069D1DE0681C1BD02DB10F
:1039D000FFF7CCF8A0EB0800A84214D92068C16812
:1039E00021F4D071C1602068416921F00101416179
:1039F000202084F83D0084F83E00002084F83C003C
:103A00000320BDE8F0812068006836EA000004D099
:103A10000020B842D9D00020F3E70120F9E70000E8
:103A20000148FFF7D3BB000058000020FEE700006C
:103A300070B500F071F9274C2061A8B126A0FCF701
:103A4000A1FC28A1206900F059F990B125A12069B5
:103A500000F054F90069FCF7B9FD6060BDE8704002
:103A6000014623A0FCF78EBCBDE8704028A0FCF7FF
:103A700089BC2BA1206900F041F9002828D028A199
:103A8000206900F03BF9006929A1FCF7ACFD294E43
:103A90004FF4005530B128A0FCF774FC002001223F
:103AA000A0600FE01EA1206900F028F9006925A19F
:103AB000FCF799FD00280BD023A0FCF763FC012044
:103AC0000022A06029463046BDE87040FFF748B8A4
:103AD00070BD0000000000204A736F6E206F6B21E4
:103AE0000D0A000074686F6E67736F31000000008C
:103AF00074686F6E6720736F20312074686179205D
:103B0000646F69206C61203A2025640D0A00000072
:103B10006A736F6E206572726F72210D0A00000069
:103B20007472616E677468616964656E000000009C
:103B300030000000001001406F6666206C65642054
:103B4000310D0A00310000006F6E206C6564203179
:103B50000D0A00000907090E002804DB00F1E0202F
:103B600080F80014704700F00F0000F1E02080F8AA
:103B7000141D704740F2013200204FF0E04100F088
:103B800053BF0000024A0020110700F04DBF0000A3
:103B900001FDFFFF10B50446D1E9000100F002F875
:103BA000206010BDF8B504460D466A4600F044F9A1
:103BB00000987E30009000281EDC0022134620462C
:103BC000294600F0CBFD17D0002140F608004FF049
:103BD000000006462046294600F07AFD044640F6DD
:103BE000080006EA00014FF0000034F0004004BF76
:103BF0000220FDF732FC29E00098FF2828DB002195
:103C000008464FF0000000F440060022134620460C
:103C1000294600F099FE8CBF002501250220FDF702
:103C20001CFC4FF0FF4446B1002D0CBF4FF40000C8
:103C30004FF48000B04218BF084C042108464FF0F2
:103C40000000002D04BF84F00040F8BD2046F8BD00
:103C500020462946BDE8F84000F03ABDFFFF7F7FCF
:103C600010B504460A46D4E90003194600F04DF9A0
:103C7000C4E9000110BD30380A2801D20120704784
:103C80000020704710B530B1036823B1D0E901219D
:103C9000914201D204E0002010BD491C816020B196
:103CA000914202D25C5C202CF7D99142F4D1491E9A
:103CB000816010BD70B504460F4E19E0A0892568DB
:103CC000C0050AD4A06820B1FFF7F4FFA089C005A1
:103CD00003D4206908B171688847A089800503D49E
:103CE000206A08B1716888477168204688472C4669
:103CF000002CE3D170BD000030000020002200F055
:103D0000C7B810B5016828208847040002D02821D0
:103D1000FCF723FD204610BD0022114600F06EB8CE
:103D20002DE9F04788B00F4604469A4616461C21F6
:103D30006846FCF712FD2F480025002C0560456001
:103D400055D08146E7B3CDE900470295D9E9021283
:103D5000D9F810000491CDE9052009F10800FFF71A
:103D6000D0FF5FEA00082BD000986F4608B1029898
:103D700008B100270BE00198042808D903221EA1EE
:103D80000098FCF761FC10B90298C01C02903846FC
:103D9000FFF778FF0146404600F078FB68B1BAF1C2
:103DA000000F13D06846FFF76DFFDDE90101814286
:103DB00003D202990098405C40B14046FFF77AFF79
:103DC000DDE9011088420AD205460BE01EB10299D6
:103DD000009808443060404608B0BDE8F087081EEF
:103DE00000D0451E0EB160193060C9E900450020C1
:103DF000F2E7000028000020EFBBBF0070B51546B9
:103E00000E46040009D0FCF700FC411C2B4632464C
:103E10002046BDE87040FFF783BF002070BD8A6870
:103E2000002A01DCFDF758BD521E8A604A68C0B204
:103E3000531C4B601070704710B51446002222606E
:103E4000114A21F000439342A8BF10BD53EA00027B
:103E500008BF10BDB3F5801FA8BF226807DA36225D
:103E600000F0E2FD6FF0350221F000432260DFF840
:103E70001CC06FF31E510CEB23531A4441F0FF5149
:103E800041F00051226010BD0000F07F02FCFFFFF6
:103E90002DE9F0418846A8B3B8F1000F33D084680B
:103EA0000AB90AE024686CB3216A59B34046FCF7AA
:103EB0007BFC0028F6D120E024681CB3266A5FEA68
:103EC0000805F9D0002EF7D0B54218D002E098B11D
:103ED0006D1C761C2878FCF747FA07463078FCF70B
:103EE00043FA87422878F2D0FCF73EFA054630784C
:103EF000FCF73AFA8542DFD124B1206A10B120469E
:103F0000BDE8F081FFE70020FAE72DE9F041064621
:103F10000C4640F2FF75174635EA14502BD00022AC
:103F20001346304600F01AFC25D03A46304621466A
:103F300000F07AFD06460C4635EA145010D00022F7
:103F40001346304600F00AFC15D10220FDF785FA31
:103F5000FFF718FE0A46214662F31E01BDE8F08114
:103F60000220FDF77AFAFFF705FE0A46214662F3C2
:103F70001E01BDE8F08130462146BDE8F081000019
:103F8000FEF702FEFFF7F6FBFFF726FB3548344944
:103F9000002401604FF4E131C0E901140C21C46038
:103FA000C0E904418461C461FFF716FA08B172B632
:103FB000FEE705222C492B48FFF780FAFEF7D6FDD5
:103FC0000646FEF7D3FD284DDFF8A090143D4FF4D0
:103FD000FA78C5E908044FF47A7700BFFEF7C6FD0A
:103FE000D5E90812411A64EB02004FF47A72891A7B
:103FF00070F1000007DBD5E90110FFF75DFBFEF76C
:10400000B5FDC5E90804FEF7B1FD801B404507D9A1
:104010004FF400511648FEF79BFDFEF7A7FD06463C
:10402000287801280AD1052249460F48FEF7D8FB17
:1040300005220D490B48FFF741FA2C700A4805226A
:104040004946401DFEF790FB07493B460522491DA6
:104050000448FFF765FA3846FEF75AFCBEE7000051
:1040600000440040580000201400002002FC010819
:10407000001001402DE9F04107460025C8680C46B4
:104080002E46B0F57A7F5BD2401CE0602168A068C4
:10409000095C5B2954D1401CA0602046FFF7F2FD6B
:1040A0004CB1D4E90110884203D22268125C5D2A27
:1040B00033D0884203D3A068401EA06040E0401E79
:1040C00004F11008A0604046FFF71BFE98B30DB343
:1040D000306046600646A068401CA0602046FFF79E
:1040E000D1FD2146304600F0D1F930B32046FFF72C
:1040F000C9FD14B3D4E90110884203D22168095CD8
:104100002C29E0D06268904217D22168085C5D28B3
:1041100013D102E005462E46DDE7E068401EE06070
:1041200005B16E602020C7E90250A068401CA06065
:104130000120BDE8F081FFE715B12846FFF7BAFD81
:104140000020F6E7034610B500200246995CA1F175
:104150003004092C01D830380AE0A1F14104052CC3
:1041600001D8373804E0A1F16104052C08D857388C
:104170000844032A00D20001521C042AE6D310BDD1
:10418000002010BD2DE9F04192B04FF00005064629
:104190000C004FF02E03284610953CD02168D1B377
:1041A0006A4627E027683944415C34291BD00ADC81
:1041B000A1F12B07092F23D2DFE807F015221517ED
:1041C00022151515150038290DD006DC35290AD021
:1041D000362908D0372913D105E0392903D04529DC
:1041E00001D065290CD1115400E01354401C3F2824
:1041F00006D22CB1A168D4F804C00F186745D1D3FA
:104200001554904610A9104600F0BEF90F461099BB
:104210000546884503D1002012B0BDE8F081C6E90B
:104220000657114A114B2846394600F08DFB02D83B
:104230006FF000400DE000220D4B2846394600F09B
:10424000F9FA02D84FF0004003E02846394600F062
:10425000C1FA70610820F060109AA168A2EB080012
:104260000844A0600120D7E70000C0FFFFFFDF4146
:104270000000E0C12DE9F04107460026C8680C4661
:104280003546B0F57A7F78D2401CE060002C74D0BF
:10429000D4E90110884270D22168095C7B296CD175
:1042A000401CA0602046FFF7EDFCD4E901108842D5
:1042B00003D22268125C7D2A4CD08842A0F1010012
:1042C000A0605AD204F110084046FFF71AFDE8B387
:1042D000F6B1286045600546A068401CA0602046F5
:1042E000FFF7D0FC2146284600F049F878B3204675
:1042F000FFF7C8FC28692862002028613CB3D4E994
:104300000110884236D22168095C3A2932D102E094
:1043100006463546E0E7401CA0602046FFF7B2FCA9
:104320002146284600F0B2F888B12046FFF7AAFCE3
:10433000D4E90110884203D22168095C2C29C3D03A
:104340006268904216D22168085C01E011E011E039
:104350007D280FD1E068401EE06006B17560402006
:10436000C7E90260A068401CA0600120BDE8F081A0
:1043700003E016B13046FFF79DFC0020F6E72DE97B
:10438000F84380468B6808684FF00009C418CDF8E0
:10439000009008680E46651CC15C641C22296ED121
:1043A0000022716808E0BCF15C0F04D17F1C8F42D1
:1043B00065D2521C641C641C271A8F4204D294F8E4
:1043C00000C0BCF1220FEED1271A8F4257D22178BC
:1043D000222954D11844201A801A3169401C884778
:1043E00007004CD0009737E029785C2905D0009869
:1043F0006D1C00F8011B00902EE00220611B0129BA
:1044000039DB6A78662A14D008DC222A12D02F2AD7
:1044100010D05C2A0ED0622A2DD108E06E2A0ED070
:10442000722A0ED0742A0ED0752A24D10DE00822EB
:1044300000E00C22009901F8012B00910BE00A2208
:10444000F8E70D22F6E70922F4E76A4621462846F6
:1044500000F0A8F878B10544A542C5D3009981F8C9
:1044600000901021C8E903173068201A401CB06082
:104470000120BDE8F88317B171693846884715B146
:104480003068281AB0600020F3E7000070B50C0017
:1044900005465ED0206800285BD0A16863680A1DCD
:1044A0009A4205D80844042231A1FCF7CDF878B32C
:1044B000A0686268411D0126914206D82168052244
:1044C00008442DA1FCF7C0F828B3A0686268011D5C
:1044D000914206D821680422084429A1FCF7B4F8C7
:1044E000E8B1D4E90101814203D22268525C222A58
:1044F0001DD0814221D22268525C2D2A02D0303A4E
:10450000092A1AD821462846BDE87040FFF73ABE6E
:104510000420E86006E0EE60A068401D04E0022090
:104520006E61E860A068001DA060012070BD21469A
:104530002846BDE87040FFF722BF814203D22268BF
:10454000525C5B2A07D0814203D22068405C7B2802
:1045500007D0002070BD21462846BDE87040FFF717
:1045600089BD21462846BDE87040FFF783BE0000A4
:104570006E756C6C0000000066616C736500000075
:10458000747275650000000000B583B00A46002112
:10459000CDE9001101466846FCF702FDDDE90001A6
:1045A00003B000BD2DE9F04705460027481B16461D
:1045B000894606285DDBA81CFFF7C4FD0446A0F56C
:1045C0005C414FF48060814253D3A4F55841824648
:1045D00051451AD2A81DA9EB00014FF00C0806297D
:1045E00047DB01785C2944D14178752941D1801C91
:1045F000FFF7A8FDA0F55C4151453AD2C4F309018B
:1046000061F39F2000F5803002E04FF0060820465D
:10461000802801D2012110E0B0F5006F02D2022102
:10462000C0270AE0B0F5803F02D20321E02704E072
:10463000B0F5881F1DD20421F0274A1E08E000BFF4
:1046400000F0BF03346843F080038009A354521E76
:1046500012F0FF02F4D1012901D9384301E000F042
:104660007F00326810703068084430604046BDE812
:10467000F0870020FBE7000010B500290AD0087879
:10468000002807D005487844FCF78EF8002801D0B0
:10469000002010BD0248784410BD0000360500001F
:1046A0002E05000010B500290AD00878002807D090
:1046B00005487844FCF778F8002801D0002010BDA8
:1046C0000248784410BD00001A06000012060000DF
:1046D00021F00042A2F16052B2F5801F01F00043C8
:1046E00028BFD2F17F6C0BD95FEA001C43EAC202FB
:1046F00042EB507018BF704728BF20F00100704790
:10470000B2F5801FBCBF184670474FEA410C1CF53C
:10471000001F02D2084600F04DB970B500F0C6F88F
:1047200000000089FFF7F6BF4FF00040A0F58000C1
:104730007047000002494FF0000000F043B900BF8D
:104740000000F87F491058BFC1F140415B1058BFCD
:10475000C3F140438B42EFF30080704751EA030CF2
:1047600017D41CF5801F58BFBCF5801F00F10680D0
:10477000994218BF704708BF9042704707D711F59C
:10478000801F58BF13F5801F19D499427047894282
:1047900070471CF5801F08D5BCF5801FF7D58B42EC
:1047A00018BF704708BF824270474FF4001C1CEBD3
:1047B000410F38BF1CEB430F01D28B42704770B5DD
:1047C00000F074F8922449004FF000514FF08053EC
:1047D000FFF7B8BF4FEA41034FEA5353A3F5806395
:1047E000D3F11E03C8BFD3F1210C0CDD4FF0004202
:1047F00042EAC12242EA505232FA03FC8CEAE17CDE
:10480000ACEBE1707047102BC4BF0020704703F57C
:10481000787CBCF1FF3F04D06FF0004282EA2100B7
:10482000704770B500F042F849922480002070472C
:10483000F2E7000051EA030C17D41CF5801F58BFA3
:10484000BCF5801F00F10680994218BF704708BF71
:104850009042704707D711F5801F58BF13F5801F8E
:1048600019D499427047894270471CF5801F08D5BA
:10487000BCF5801FF7D58B4218BF704708BF824236
:1048800070474FF4001C1CEB410F38BF1CEB430F6B
:1048900001D28B42704770B500F008F892244900AD
:1048A0004FF000514FF08053FFF74CBF0EF1020E56
:1048B0002EF0030E5EF8046B364205D4012A43EB5A
:1048C000030515F5001F12D8012841EB010C1CF55A
:1048D000001F0CD80ED14FEAD17C15F5001F0CEB50
:1048E0004C0C0CF1020C08BF4CEBD37C04E04FF0F5
:1048F000080C01E04FEAD37C0CEB4C0526FA05F6D8
:1049000006F00706B6F1040C06D20EEB860CBDE8E5
:1049100070404CF0010C6047DFE80CF0090B02021C
:104920004FF000414FF00000A1F5002170BD194685
:104930001046012851EB010418BFD4F5001484BFC0
:10494000002001F0004170BD53EA010C17D41CF5A2
:10495000801F58BFBCF5801F00F106808B4218BF36
:10496000704708BF8242704707D713F5801F58BFB2
:1049700011F5801F19D48B4270479B4270471CF57C
:10498000801F08D5BCF5801FF7D5994218BF704726
:1049900008BF904270474FF4001C1CEB430F38BF18
:1049A0001CEB410F01D2994270470FB40CBC03BC01
:1049B000FFF771BFFF2141EAD050C00570474FF0AB
:1049C000000070470CF00F03092B08BF082000F00F
:1049D0005F800A2B0BD0082B18BF704708BF1CF054
:1049E000400F0AD04FF000004FF0000170471CF05C
:1049F000400F18BF4FF0004070471CF0100F08D058
:104A000020F0704300F07F4242EAD3014FEA437046
:104A1000704700F0604021F07F4242EA000201F05E
:104A20007F4040EA727070474FF0FF0C4CF4E06C2E
:104A30001CEA11531CBF9CEA030C9445C2BFDA4226
:104A400001EB02517047002B0DD0BCF1000F0FD0CD
:104A5000002A01F00041A4BF41F0E04141F07F6134
:104A60004FF00000704701F000414FF00000704728
:104A700050EA01334FF09B0C18BF4CF0806C7FF470
:104A800059AE7047FCF7F8B8FCF7FCBCFCF78ABEDF
:104A90001CF4801F11D01CF4E02F03D06FEACC313E
:104AA000490070474FF04050EFF3008222F070420F
:104AB00042EA000282F3008870474FF0000070471E
:104AC00000000000000000000102030406070809BE
:104AD00000000000010203040400000800000000C0
:104AE0000000000200010000100000000240000071
:104AF000000000A00000000005400000000000C809
:104B0000000000000C4000000000409C000000007D
:104B1000194000000020BCBE00000000344000002E
:104B2000BFC91B8E00000004B5400000504BCFD021
:104B30006607E2CF010000006C4100003E8251AAEE
:104B4000DFEEA73401000000D9420000DCB5A0E28E
:104B50003A301F97FFFFFFFFB4450000FD25A0C8B6
:104B6000E9A3C14FFFFFFFFFFF3F000000000080EF
:104B700000000000FF3F0000000000800000000077
:104B80003A7474003A7474003A747400E84C000883
:104B9000000000205800000028010008404D0008D7
:104BA000580000209809000044010008000000009F
:104BB0000000F07FFFFFFFFFFFFFEF7F100100000D
:104BC00043000000F8FFFFFF0040404040404040ED
:104BD00040404141414141404040404040404040D0
:104BE0004040404040404040400502020202020274
:104BF00002020202020202020220202020202020C3
:104C000020202002020202020202909090909090D6
:104C10001010101010101010101010101010101094
:104C20001010101002020202020288888888888808
:104C300008080808080808080808080808080808F4
:104C400008080808020202024000000000000000FC
:104C50000000000000000000000000000000000054
:104C60000000000000000000000000000000000044
:104C70000000000000000000000000000000000034
:104C80000000000000000000000000000000000024
:104C90000000000000000000000000000000000014
:104CA0000000000000000000000000000000000004
:104CB00000000000000000000000000000000000F4
:104CC0000000000000000000000000001C000000C8
:104CD00043000000F8FFFFFF0C0000000E00000082
:104CE0000F0000002E000000000000000000000087
:104CF00000000000000000000000000000000000B4
:104D000000000000000000000000000000000000A3
:104D10000000000000000000050200086302000817
:104D2000B1020008010000001000000000000000B7
:104D30000024F4000000000000000000000000005B
:04000005080000ED02
:00000001FF
